{"contracts/FateFiPool.sol":{"FateFiPool":{"abi":[{"inputs":[{"internalType":"uint256","name":"_stakeAmount","type":"uint256"}],"stateMutability":"nonpayable","type":"constructor"},{"anonymous":false,"inputs":[{"indexed":true,"internalType":"address","name":"user","type":"address"},{"indexed":true,"internalType":"uint256","name":"dayId","type":"uint256"},{"indexed":false,"internalType":"uint256","name":"payout","type":"uint256"}],"name":"Claimed","type":"event"},{"anonymous":false,"inputs":[{"indexed":true,"internalType":"uint256","name":"dayId","type":"uint256"},{"indexed":false,"internalType":"uint256","name":"totalPool","type":"uint256"}],"name":"DayRefundable","type":"event"},{"anonymous":false,"inputs":[{"indexed":true,"internalType":"uint256","name":"dayId","type":"uint256"},{"indexed":false,"internalType":"enum FateFiPool.Option","name":"winner","type":"uint8"},{"indexed":false,"internalType":"uint256","name":"totalPool","type":"uint256"},{"indexed":false,"internalType":"uint256","name":"winnerCount","type":"uint256"}],"name":"DayResolved","type":"event"},{"anonymous":false,"inputs":[{"indexed":true,"internalType":"uint256","name":"dayId","type":"uint256"}],"name":"NewDay","type":"event"},{"anonymous":false,"inputs":[{"indexed":true,"internalType":"address","name":"user","type":"address"},{"indexed":true,"internalType":"uint256","name":"dayId","type":"uint256"},{"indexed":false,"internalType":"uint256","name":"amount","type":"uint256"}],"name":"Refunded","type":"event"},{"anonymous":false,"inputs":[{"indexed":true,"internalType":"address","name":"user","type":"address"},{"indexed":true,"internalType":"uint256","name":"dayId","type":"uint256"},{"indexed":false,"internalType":"enum FateFiPool.Option","name":"option","type":"uint8"},{"indexed":false,"internalType":"uint256","name":"amount","type":"uint256"}],"name":"Staked","type":"event"},{"inputs":[],"name":"CLAIM_WINDOW","outputs":[{"internalType":"uint256","name":"","type":"uint256"}],"stateMutability":"view","type":"function"},{"inputs":[],"name":"admin","outputs":[{"internalType":"address","name":"","type":"address"}],"stateMutability":"view","type":"function"},{"inputs":[{"internalType":"uint256","name":"dayId","type":"uint256"}],"name":"claim","outputs":[],"stateMutability":"nonpayable","type":"function"},{"inputs":[{"internalType":"uint256","name":"dayId","type":"uint256"}],"name":"claimRefund","outputs":[],"stateMutability":"nonpayable","type":"function"},{"inputs":[],"name":"currentDay","outputs":[{"internalType":"uint256","name":"","type":"uint256"}],"stateMutability":"view","type":"function"},{"inputs":[{"internalType":"uint256","name":"","type":"uint256"}],"name":"days_","outputs":[{"internalType":"uint256","name":"totalStaked","type":"uint256"},{"internalType":"uint8","name":"winningOption","type":"uint8"},{"internalType":"bool","name":"resolved","type":"bool"},{"internalType":"bool","name":"exists","type":"bool"},{"internalType":"bool","name":"refundable","type":"bool"},{"internalType":"uint256","name":"resolvedAt","type":"uint256"},{"internalType":"uint256","name":"claimedCount","type":"uint256"},{"internalType":"uint256","name":"totalClaimed","type":"uint256"}],"stateMutability":"view","type":"function"},{"inputs":[{"internalType":"uint256","name":"dayId","type":"uint256"}],"name":"getDayInfo","outputs":[{"internalType":"uint256","name":"totalStaked","type":"uint256"},{"internalType":"uint256[3]","name":"optionTotals","type":"uint256[3]"},{"internalType":"uint256[3]","name":"optionCounts","type":"uint256[3]"},{"internalType":"bool","name":"resolved","type":"bool"},{"internalType":"uint8","name":"winningOption","type":"uint8"}],"stateMutability":"view","type":"function"},{"inputs":[{"internalType":"uint256","name":"dayId","type":"uint256"},{"internalType":"address","name":"user","type":"address"}],"name":"getUserStake","outputs":[{"internalType":"bool","name":"exists","type":"bool"},{"internalType":"uint8","name":"option","type":"uint8"},{"internalType":"bool","name":"claimed","type":"bool"}],"stateMutability":"view","type":"function"},{"inputs":[{"internalType":"uint256","name":"dayId","type":"uint256"}],"name":"isDayRefundable","outputs":[{"internalType":"bool","name":"","type":"bool"}],"stateMutability":"view","type":"function"},{"inputs":[{"internalType":"uint8","name":"winner","type":"uint8"}],"name":"resolve","outputs":[],"stateMutability":"nonpayable","type":"function"},{"inputs":[{"internalType":"address","name":"newAdmin","type":"address"}],"name":"setAdmin","outputs":[],"stateMutability":"nonpayable","type":"function"},{"inputs":[{"internalType":"uint256","name":"_stakeAmount","type":"uint256"}],"name":"setStakeAmount","outputs":[],"stateMutability":"nonpayable","type":"function"},{"inputs":[{"internalType":"uint8","name":"option","type":"uint8"}],"name":"stake","outputs":[],"stateMutability":"payable","type":"function"},{"inputs":[],"name":"stakeAmount","outputs":[{"internalType":"uint256","name":"","type":"uint256"}],"stateMutability":"view","type":"function"},{"inputs":[{"internalType":"uint256","name":"","type":"uint256"},{"internalType":"address","name":"","type":"address"}],"name":"stakes","outputs":[{"internalType":"enum FateFiPool.Option","name":"option","type":"uint8"},{"internalType":"bool","name":"exists","type":"bool"},{"internalType":"bool","name":"claimed","type":"bool"}],"stateMutability":"view","type":"function"},{"inputs":[{"internalType":"uint256","name":"dayId","type":"uint256"},{"internalType":"uint256","name":"amount","type":"uint256"}],"name":"sweepDust","outputs":[],"stateMutability":"nonpayable","type":"function"}],"evm":{"bytecode":{"linkReferences":{},"object":"608060405234801561001057600080fd5b506040516117b13803806117b183398101604081905261002f916100b5565b600180546001600160a01b0319163317815560028290556000818155600582905581815260036020527fa15bc60c955c405d20d9149c709e2460f1c2d9a497496a7f46004d1772c30553805462ff00001916620100001790556040517f3be0a3a204f5de4fb6c50e9eafa1a22b8939161f238c3919b3ba45887af1cf1d9190a2506100ce565b6000602082840312156100c757600080fd5b5051919050565b6116d4806100dd6000396000f3fe6080604052600436106100f35760003560e01c8063704b6c021161008a578063a0270dbc11610059578063a0270dbc14610327578063a9a3bba414610347578063f16129dd146103a4578063f851a440146103ee57600080fd5b8063704b6c02146102015780637bbb3b79146102215780639626a230146102cf5780639f34fc801461031057600080fd5b80635c9302c9116100c65780635c9302c9146101945780635e5aaefe146101b8578063604f2177146101d857806360c7dc47146101eb57600080fd5b806315ff8dd9146100f8578063379607f51461013257806343808c50146101545780635b7baf6414610174575b600080fd5b34801561010457600080fd5b506101186101133660046113dc565b610426565b60405161012995949392919061141e565b60405180910390f35b34801561013e57600080fd5b5061015261014d3660046113dc565b6104dd565b005b34801561016057600080fd5b5061015261016f3660046113dc565b61087c565b34801561018057600080fd5b5061015261018f3660046113dc565b6108ab565b3480156101a057600080fd5b506101aa60055481565b604051908152602001610129565b3480156101c457600080fd5b506101526101d336600461145c565b610b30565b6101526101e636600461147e565b610d0e565b3480156101f757600080fd5b506101aa60025481565b34801561020d57600080fd5b5061015261021c3660046114c4565b611061565b34801561022d57600080fd5b5061028a61023c3660046113dc565b60036020526000908152604090208054600782015460088301546009840154600a90940154929360ff8084169461010085048216946201000081048316946301000000909104909216929088565b6040805198895260ff90971660208901529415159587019590955291151560608601521515608085015260a084015260c083019190915260e082015261010001610129565b3480156102db57600080fd5b506102ef6102ea3660046114df565b6110f2565b60408051931515845260ff9092166020840152151590820152606001610129565b34801561031c57600080fd5b506101aa62093a8081565b34801561033357600080fd5b5061015261034236600461147e565b61114e565b34801561035357600080fd5b506103956103623660046114df565b600460209081526000928352604080842090915290825290205460ff808216916101008104821691620100009091041683565b60405161012993929190611543565b3480156103b057600080fd5b506103de6103bf3660046113dc565b6000908152600360205260409020600701546301000000900460ff1690565b6040519015158152602001610129565b3480156103fa57600080fd5b5060015461040e906001600160a01b031681565b6040516001600160a01b039091168152602001610129565b60006104306113be565b6104386113be565b600084815260036020819052604080832080546007820154835160608101948590528695939492936001860193600487019360ff6101008204811694911692909186919082845b81548152602001906001019080831161047f57505060408051606081019182905294985087935060039250905082845b8154815260200190600101908083116104af5750505050509250955095509550955095505091939590929450565b6002600054036105085760405162461bcd60e51b81526004016104ff90611567565b60405180910390fd5b600260009081558181526003602052604090206007810154610100900460ff1661056b5760405162461bcd60e51b815260206004820152601460248201527311185e481b9bdd081c995cdbdb1d9959081e595d60621b60448201526064016104ff565b60078101546301000000900460ff16156105c75760405162461bcd60e51b815260206004820152601e60248201527f4e6f2077696e6e657273202d2075736520636c61696d526566756e642829000060448201526064016104ff565b600082815260046020908152604080832033845290915290208054610100900460ff166106275760405162461bcd60e51b815260206004820152600e60248201526d139bc81cdd185ad948199bdd5b9960921b60448201526064016104ff565b805462010000900460ff16156106715760405162461bcd60e51b815260206004820152600f60248201526e105b1c9958591e4818db185a5b5959608a1b60448201526064016104ff565b6007820154815460ff918216911660028111156106905761069061150b565b60ff16146106cf5760405162461bcd60e51b815260206004820152600c60248201526b2737ba1030903bb4b73732b960a11b60448201526064016104ff565b6007820154600090600484019060ff16600381106106ef576106ef61159e565b0154825462ff000019166201000017835560098401805491925060019160009061071a9084906115ca565b9250508190555060008184600901540361074657600a840154845461073f91906115e3565b9050610756565b83546107539083906115f6565b90505b6002548110156107b75760405162461bcd60e51b815260206004820152602660248201527f496e76617269616e742076696f6c617465643a207061796f75742062656c6f77604482015265207374616b6560d01b60648201526084016104ff565b8084600a0160008282546107cb91906115ca565b9091555050604051600090339083908381818185875af1925050503d8060008114610812576040519150601f19603f3d011682016040523d82523d6000602084013e610817565b606091505b50509050806108385760405162461bcd60e51b81526004016104ff90611618565b604051828152869033907f987d620f307ff6b94d58743cb7a7509f24071586a77759b77c2d4e29f75a2f9a9060200160405180910390a35050600160005550505050565b6001546001600160a01b031633146108a65760405162461bcd60e51b81526004016104ff90611641565b600255565b6002600054036108cd5760405162461bcd60e51b81526004016104ff90611567565b600260009081558181526003602052604090206007810154610100900460ff166109305760405162461bcd60e51b815260206004820152601460248201527311185e481b9bdd081c995cdbdb1d9959081e595d60621b60448201526064016104ff565b60078101546301000000900460ff166109835760405162461bcd60e51b8152602060048201526015602482015274446179206973206e6f7420726566756e6461626c6560581b60448201526064016104ff565b600082815260046020908152604080832033845290915290208054610100900460ff166109e35760405162461bcd60e51b815260206004820152600e60248201526d139bc81cdd185ad948199bdd5b9960921b60448201526064016104ff565b805462010000900460ff1615610a2e5760405162461bcd60e51b815260206004820152601060248201526f105b1c9958591e481c99599d5b99195960821b60448201526064016104ff565b805462ff000019166201000017815560098201805460019190600090610a559084906115ca565b9091555050600254600a83018054600090610a719084906115ca565b909155505060025460405160009133918381818185875af1925050503d8060008114610ab9576040519150601f19603f3d011682016040523d82523d6000602084013e610abe565b606091505b5050905080610adf5760405162461bcd60e51b81526004016104ff90611618565b83336001600160a01b03167f2dc8e290002f06fc0085bbca9dfb8b415cf4d1178950c72ff9ee8f4d8878ee66600254604051610b1d91815260200190565b60405180910390a3505060016000555050565b6001546001600160a01b03163314610b5a5760405162461bcd60e51b81526004016104ff90611641565b60008281526003602052604090206007810154610100900460ff16610bb45760405162461bcd60e51b815260206004820152601060248201526f11185e481b9bdd081c995cdbdb1d995960821b60448201526064016104ff565b62093a808160080154610bc791906115ca565b421015610c165760405162461bcd60e51b815260206004820152601760248201527f436c61696d2077696e646f77207374696c6c206f70656e00000000000000000060448201526064016104ff565b600a8101548154600091610c29916115e3565b905080831115610c7b5760405162461bcd60e51b815260206004820181905260248201527f416d6f756e74206578636565647320756e636c61696d65642062616c616e636560448201526064016104ff565b8282600a016000828254610c8f91906115ca565b90915550506001546040516000916001600160a01b03169085908381818185875af1925050503d8060008114610ce1576040519150601f19603f3d011682016040523d82523d6000602084013e610ce6565b606091505b5050905080610d075760405162461bcd60e51b81526004016104ff90611618565b5050505050565b600260005403610d305760405162461bcd60e51b81526004016104ff90611567565b6002600081905560ff82161115610d7a5760405162461bcd60e51b815260206004820152600e60248201526d24b73b30b634b21037b83a34b7b760911b60448201526064016104ff565b6002543414610dc05760405162461bcd60e51b815260206004820152601260248201527115dc9bdb99c81cdd185ad948185b5bdd5b9d60721b60448201526064016104ff565b6005546000908152600360205260409020600781015462010000900460ff16610e1a5760405162461bcd60e51b815260206004820152600c60248201526b2230bc903737ba1037b832b760a11b60448201526064016104ff565b6007810154610100900460ff1615610e6b5760405162461bcd60e51b815260206004820152601460248201527311185e48185b1c9958591e481c995cdbdb1d995960621b60448201526064016104ff565b6005546000908152600460209081526040808320338452909152902054610100900460ff1615610ed45760405162461bcd60e51b8152602060048201526014602482015273416c7265616479207374616b656420746f64617960601b60448201526064016104ff565b60405180606001604052808360ff166002811115610ef457610ef461150b565b6002811115610f0557610f0561150b565b81526001602080830182905260006040938401819052600554815260048252838120338252909152919091208251815491929091839160ff1990911690836002811115610f5457610f5461150b565b0217905550602082015181546040909301511515620100000262ff000019911515610100029190911662ffff001990931692909217919091179055805434908290600090610fa39084906115ca565b909155503490506001820160ff841660038110610fc257610fc261159e565b016000828254610fd291906115ca565b90915550600190506004820160ff841660038110610ff257610ff261159e565b01600082825461100291906115ca565b9091555050600554337fbde7f0ba1630d25515c7ab99ba47d5640b7ffb4c673b2a5464ae67919558929860ff851660028111156110415761104161150b565b34604051611050929190611664565b60405180910390a350506001600055565b6001546001600160a01b0316331461108b5760405162461bcd60e51b81526004016104ff90611641565b6001600160a01b0381166110d05760405162461bcd60e51b815260206004820152600c60248201526b5a65726f206164647265737360a01b60448201526064016104ff565b600180546001600160a01b0319166001600160a01b0392909216919091179055565b60008281526004602090815260408083206001600160a01b0385168452909152812080548291829160ff61010082048116911660028111156111365761113661150b565b9154909791965062010000900460ff16945092505050565b6001546001600160a01b031633146111785760405162461bcd60e51b81526004016104ff90611641565b60028160ff1611156111bd5760405162461bcd60e51b815260206004820152600e60248201526d24b73b30b634b2103bb4b73732b960911b60448201526064016104ff565b6005546000908152600360205260409020600781015462010000900460ff166112175760405162461bcd60e51b815260206004820152600c60248201526b2230bc903737ba1037b832b760a11b60448201526064016104ff565b6007810154610100900460ff16156112645760405162461bcd60e51b815260206004820152601060248201526f105b1c9958591e481c995cdbdb1d995960821b60448201526064016104ff565b60078101805461ffff191660ff84169081176101001790915542600883015560009060048301906003811061129b5761129b61159e565b01549050806000036113005760078201805463ff0000001916630100000017905560055482546040517fa30d554b31ef1a2564a1208cd94343ef61aea2effedc3888790c398bdd009a03916112f39190815260200190565b60405180910390a2611354565b6005547ff708d5cf24bfd97b8d216250c0dd5061e1e623770ceb1a8b812a51eb932402d28460ff1660028111156113395761133961150b565b845460405161134b929190869061167f565b60405180910390a25b60016005600082825461136791906115ca565b909155505060058054600090815260036020526040808220600701805462ff0000191662010000179055915491517f3be0a3a204f5de4fb6c50e9eafa1a22b8939161f238c3919b3ba45887af1cf1d9190a2505050565b60405180606001604052806003906020820280368337509192915050565b6000602082840312156113ee57600080fd5b5035919050565b8060005b60038110156114185781518452602093840193909101906001016113f9565b50505050565b858152610120810161143360208301876113f5565b61144060808301866113f5565b83151560e083015260ff83166101008301529695505050505050565b6000806040838503121561146f57600080fd5b50508035926020909101359150565b60006020828403121561149057600080fd5b813560ff811681146114a157600080fd5b9392505050565b80356001600160a01b03811681146114bf57600080fd5b919050565b6000602082840312156114d657600080fd5b6114a1826114a8565b600080604083850312156114f257600080fd5b82359150611502602084016114a8565b90509250929050565b634e487b7160e01b600052602160045260246000fd5b6003811061153f57634e487b7160e01b600052602160045260246000fd5b9052565b606081016115518286611521565b9215156020820152901515604090910152919050565b6020808252601f908201527f5265656e7472616e637947756172643a207265656e7472616e742063616c6c00604082015260600190565b634e487b7160e01b600052603260045260246000fd5b634e487b7160e01b600052601160045260246000fd5b808201808211156115dd576115dd6115b4565b92915050565b818103818111156115dd576115dd6115b4565b60008261161357634e487b7160e01b600052601260045260246000fd5b500490565b6020808252600f908201526e151c985b9cd9995c8819985a5b1959608a1b604082015260600190565b6020808252600990820152682737ba1030b236b4b760b91b604082015260600190565b604081016116728285611521565b8260208301529392505050565b6060810161168d8286611521565b60208201939093526040015291905056fea26469706673582212201f22efb1031ef226c1207af97a89463c78634c5cbb9a84f12f2697663d55111164736f6c63430008180033","opcodes":"PUSH1 0x80 PUSH1 0x40 MSTORE CALLVALUE DUP1 ISZERO PUSH2 0x10 JUMPI PUSH1 0x0 DUP1 REVERT JUMPDEST POP PUSH1 0x40 MLOAD PUSH2 0x17B1 CODESIZE SUB DUP1 PUSH2 0x17B1 DUP4 CODECOPY DUP2 ADD PUSH1 0x40 DUP2 SWAP1 MSTORE PUSH2 0x2F SWAP2 PUSH2 0xB5 JUMP JUMPDEST PUSH1 0x1 DUP1 SLOAD PUSH1 0x1 PUSH1 0x1 PUSH1 0xA0 SHL SUB NOT AND CALLER OR DUP2 SSTORE PUSH1 0x2 DUP3 SWAP1 SSTORE PUSH1 0x0 DUP2 DUP2 SSTORE PUSH1 0x5 DUP3 SWAP1 SSTORE DUP2 DUP2 MSTORE PUSH1 0x3 PUSH1 0x20 MSTORE PUSH32 0xA15BC60C955C405D20D9149C709E2460F1C2D9A497496A7F46004D1772C30553 DUP1 SLOAD PUSH3 0xFF0000 NOT AND PUSH3 0x10000 OR SWAP1 SSTORE PUSH1 0x40 MLOAD PUSH32 0x3BE0A3A204F5DE4FB6C50E9EAFA1A22B8939161F238C3919B3BA45887AF1CF1D SWAP2 SWAP1 LOG2 POP PUSH2 0xCE JUMP JUMPDEST PUSH1 0x0 PUSH1 0x20 DUP3 DUP5 SUB SLT ISZERO PUSH2 0xC7 JUMPI PUSH1 0x0 DUP1 REVERT JUMPDEST POP MLOAD SWAP2 SWAP1 POP JUMP JUMPDEST PUSH2 0x16D4 DUP1 PUSH2 0xDD PUSH1 0x0 CODECOPY PUSH1 0x0 RETURN INVALID PUSH1 0x80 PUSH1 0x40 MSTORE PUSH1 0x4 CALLDATASIZE LT PUSH2 0xF3 JUMPI PUSH1 0x0 CALLDATALOAD PUSH1 0xE0 SHR DUP1 PUSH4 0x704B6C02 GT PUSH2 0x8A JUMPI DUP1 PUSH4 0xA0270DBC GT PUSH2 0x59 JUMPI DUP1 PUSH4 0xA0270DBC EQ PUSH2 0x327 JUMPI DUP1 PUSH4 0xA9A3BBA4 EQ PUSH2 0x347 JUMPI DUP1 PUSH4 0xF16129DD EQ PUSH2 0x3A4 JUMPI DUP1 PUSH4 0xF851A440 EQ PUSH2 0x3EE JUMPI PUSH1 0x0 DUP1 REVERT JUMPDEST DUP1 PUSH4 0x704B6C02 EQ PUSH2 0x201 JUMPI DUP1 PUSH4 0x7BBB3B79 EQ PUSH2 0x221 JUMPI DUP1 PUSH4 0x9626A230 EQ PUSH2 0x2CF JUMPI DUP1 PUSH4 0x9F34FC80 EQ PUSH2 0x310 JUMPI PUSH1 0x0 DUP1 REVERT JUMPDEST DUP1 PUSH4 0x5C9302C9 GT PUSH2 0xC6 JUMPI DUP1 PUSH4 0x5C9302C9 EQ PUSH2 0x194 JUMPI DUP1 PUSH4 0x5E5AAEFE EQ PUSH2 0x1B8 JUMPI DUP1 PUSH4 0x604F2177 EQ PUSH2 0x1D8 JUMPI DUP1 PUSH4 0x60C7DC47 EQ PUSH2 0x1EB JUMPI PUSH1 0x0 DUP1 REVERT JUMPDEST DUP1 PUSH4 0x15FF8DD9 EQ PUSH2 0xF8 JUMPI DUP1 PUSH4 0x379607F5 EQ PUSH2 0x132 JUMPI DUP1 PUSH4 0x43808C50 EQ PUSH2 0x154 JUMPI DUP1 PUSH4 0x5B7BAF64 EQ PUSH2 0x174 JUMPI JUMPDEST PUSH1 0x0 DUP1 REVERT JUMPDEST CALLVALUE DUP1 ISZERO PUSH2 0x104 JUMPI PUSH1 0x0 DUP1 REVERT JUMPDEST POP PUSH2 0x118 PUSH2 0x113 CALLDATASIZE PUSH1 0x4 PUSH2 0x13DC JUMP JUMPDEST PUSH2 0x426 JUMP JUMPDEST PUSH1 0x40 MLOAD PUSH2 0x129 SWAP6 SWAP5 SWAP4 SWAP3 SWAP2 SWAP1 PUSH2 0x141E JUMP JUMPDEST PUSH1 0x40 MLOAD DUP1 SWAP2 SUB SWAP1 RETURN JUMPDEST CALLVALUE DUP1 ISZERO PUSH2 0x13E JUMPI PUSH1 0x0 DUP1 REVERT JUMPDEST POP PUSH2 0x152 PUSH2 0x14D CALLDATASIZE PUSH1 0x4 PUSH2 0x13DC JUMP JUMPDEST PUSH2 0x4DD JUMP JUMPDEST STOP JUMPDEST CALLVALUE DUP1 ISZERO PUSH2 0x160 JUMPI PUSH1 0x0 DUP1 REVERT JUMPDEST POP PUSH2 0x152 PUSH2 0x16F CALLDATASIZE PUSH1 0x4 PUSH2 0x13DC JUMP JUMPDEST PUSH2 0x87C JUMP JUMPDEST CALLVALUE DUP1 ISZERO PUSH2 0x180 JUMPI PUSH1 0x0 DUP1 REVERT JUMPDEST POP PUSH2 0x152 PUSH2 0x18F CALLDATASIZE PUSH1 0x4 PUSH2 0x13DC JUMP JUMPDEST PUSH2 0x8AB JUMP JUMPDEST CALLVALUE DUP1 ISZERO PUSH2 0x1A0 JUMPI PUSH1 0x0 DUP1 REVERT JUMPDEST POP PUSH2 0x1AA PUSH1 0x5 SLOAD DUP2 JUMP JUMPDEST PUSH1 0x40 MLOAD SWAP1 DUP2 MSTORE PUSH1 0x20 ADD PUSH2 0x129 JUMP JUMPDEST CALLVALUE DUP1 ISZERO PUSH2 0x1C4 JUMPI PUSH1 0x0 DUP1 REVERT JUMPDEST POP PUSH2 0x152 PUSH2 0x1D3 CALLDATASIZE PUSH1 0x4 PUSH2 0x145C JUMP JUMPDEST PUSH2 0xB30 JUMP JUMPDEST PUSH2 0x152 PUSH2 0x1E6 CALLDATASIZE PUSH1 0x4 PUSH2 0x147E JUMP JUMPDEST PUSH2 0xD0E JUMP JUMPDEST CALLVALUE DUP1 ISZERO PUSH2 0x1F7 JUMPI PUSH1 0x0 DUP1 REVERT JUMPDEST POP PUSH2 0x1AA PUSH1 0x2 SLOAD DUP2 JUMP JUMPDEST CALLVALUE DUP1 ISZERO PUSH2 0x20D JUMPI PUSH1 0x0 DUP1 REVERT JUMPDEST POP PUSH2 0x152 PUSH2 0x21C CALLDATASIZE PUSH1 0x4 PUSH2 0x14C4 JUMP JUMPDEST PUSH2 0x1061 JUMP JUMPDEST CALLVALUE DUP1 ISZERO PUSH2 0x22D JUMPI PUSH1 0x0 DUP1 REVERT JUMPDEST POP PUSH2 0x28A PUSH2 0x23C CALLDATASIZE PUSH1 0x4 PUSH2 0x13DC JUMP JUMPDEST PUSH1 0x3 PUSH1 0x20 MSTORE PUSH1 0x0 SWAP1 DUP2 MSTORE PUSH1 0x40 SWAP1 KECCAK256 DUP1 SLOAD PUSH1 0x7 DUP3 ADD SLOAD PUSH1 0x8 DUP4 ADD SLOAD PUSH1 0x9 DUP5 ADD SLOAD PUSH1 0xA SWAP1 SWAP5 ADD SLOAD SWAP3 SWAP4 PUSH1 0xFF DUP1 DUP5 AND SWAP5 PUSH2 0x100 DUP6 DIV DUP3 AND SWAP5 PUSH3 0x10000 DUP2 DIV DUP4 AND SWAP5 PUSH4 0x1000000 SWAP1 SWAP2 DIV SWAP1 SWAP3 AND SWAP3 SWAP1 DUP9 JUMP JUMPDEST PUSH1 0x40 DUP1 MLOAD SWAP9 DUP10 MSTORE PUSH1 0xFF SWAP1 SWAP8 AND PUSH1 0x20 DUP10 ADD MSTORE SWAP5 ISZERO ISZERO SWAP6 DUP8 ADD SWAP6 SWAP1 SWAP6 MSTORE SWAP2 ISZERO ISZERO PUSH1 0x60 DUP7 ADD MSTORE ISZERO ISZERO PUSH1 0x80 DUP6 ADD MSTORE PUSH1 0xA0 DUP5 ADD MSTORE PUSH1 0xC0 DUP4 ADD SWAP2 SWAP1 SWAP2 MSTORE PUSH1 0xE0 DUP3 ADD MSTORE PUSH2 0x100 ADD PUSH2 0x129 JUMP JUMPDEST CALLVALUE DUP1 ISZERO PUSH2 0x2DB JUMPI PUSH1 0x0 DUP1 REVERT JUMPDEST POP PUSH2 0x2EF PUSH2 0x2EA CALLDATASIZE PUSH1 0x4 PUSH2 0x14DF JUMP JUMPDEST PUSH2 0x10F2 JUMP JUMPDEST PUSH1 0x40 DUP1 MLOAD SWAP4 ISZERO ISZERO DUP5 MSTORE PUSH1 0xFF SWAP1 SWAP3 AND PUSH1 0x20 DUP5 ADD MSTORE ISZERO ISZERO SWAP1 DUP3 ADD MSTORE PUSH1 0x60 ADD PUSH2 0x129 JUMP JUMPDEST CALLVALUE DUP1 ISZERO PUSH2 0x31C JUMPI PUSH1 0x0 DUP1 REVERT JUMPDEST POP PUSH2 0x1AA PUSH3 0x93A80 DUP2 JUMP JUMPDEST CALLVALUE DUP1 ISZERO PUSH2 0x333 JUMPI PUSH1 0x0 DUP1 REVERT JUMPDEST POP PUSH2 0x152 PUSH2 0x342 CALLDATASIZE PUSH1 0x4 PUSH2 0x147E JUMP JUMPDEST PUSH2 0x114E JUMP JUMPDEST CALLVALUE DUP1 ISZERO PUSH2 0x353 JUMPI PUSH1 0x0 DUP1 REVERT JUMPDEST POP PUSH2 0x395 PUSH2 0x362 CALLDATASIZE PUSH1 0x4 PUSH2 0x14DF JUMP JUMPDEST PUSH1 0x4 PUSH1 0x20 SWAP1 DUP2 MSTORE PUSH1 0x0 SWAP3 DUP4 MSTORE PUSH1 0x40 DUP1 DUP5 KECCAK256 SWAP1 SWAP2 MSTORE SWAP1 DUP3 MSTORE SWAP1 KECCAK256 SLOAD PUSH1 0xFF DUP1 DUP3 AND SWAP2 PUSH2 0x100 DUP2 DIV DUP3 AND SWAP2 PUSH3 0x10000 SWAP1 SWAP2 DIV AND DUP4 JUMP JUMPDEST PUSH1 0x40 MLOAD PUSH2 0x129 SWAP4 SWAP3 SWAP2 SWAP1 PUSH2 0x1543 JUMP JUMPDEST CALLVALUE DUP1 ISZERO PUSH2 0x3B0 JUMPI PUSH1 0x0 DUP1 REVERT JUMPDEST POP PUSH2 0x3DE PUSH2 0x3BF CALLDATASIZE PUSH1 0x4 PUSH2 0x13DC JUMP JUMPDEST PUSH1 0x0 SWAP1 DUP2 MSTORE PUSH1 0x3 PUSH1 0x20 MSTORE PUSH1 0x40 SWAP1 KECCAK256 PUSH1 0x7 ADD SLOAD PUSH4 0x1000000 SWAP1 DIV PUSH1 0xFF AND SWAP1 JUMP JUMPDEST PUSH1 0x40 MLOAD SWAP1 ISZERO ISZERO DUP2 MSTORE PUSH1 0x20 ADD PUSH2 0x129 JUMP JUMPDEST CALLVALUE DUP1 ISZERO PUSH2 0x3FA JUMPI PUSH1 0x0 DUP1 REVERT JUMPDEST POP PUSH1 0x1 SLOAD PUSH2 0x40E SWAP1 PUSH1 0x1 PUSH1 0x1 PUSH1 0xA0 SHL SUB AND DUP2 JUMP JUMPDEST PUSH1 0x40 MLOAD PUSH1 0x1 PUSH1 0x1 PUSH1 0xA0 SHL SUB SWAP1 SWAP2 AND DUP2 MSTORE PUSH1 0x20 ADD PUSH2 0x129 JUMP JUMPDEST PUSH1 0x0 PUSH2 0x430 PUSH2 0x13BE JUMP JUMPDEST PUSH2 0x438 PUSH2 0x13BE JUMP JUMPDEST PUSH1 0x0 DUP5 DUP2 MSTORE PUSH1 0x3 PUSH1 0x20 DUP2 SWAP1 MSTORE PUSH1 0x40 DUP1 DUP4 KECCAK256 DUP1 SLOAD PUSH1 0x7 DUP3 ADD SLOAD DUP4 MLOAD PUSH1 0x60 DUP2 ADD SWAP5 DUP6 SWAP1 MSTORE DUP7 SWAP6 SWAP4 SWAP5 SWAP3 SWAP4 PUSH1 0x1 DUP7 ADD SWAP4 PUSH1 0x4 DUP8 ADD SWAP4 PUSH1 0xFF PUSH2 0x100 DUP3 DIV DUP2 AND SWAP5 SWAP2 AND SWAP3 SWAP1 SWAP2 DUP7 SWAP2 SWAP1 DUP3 DUP5 JUMPDEST DUP2 SLOAD DUP2 MSTORE PUSH1 0x20 ADD SWAP1 PUSH1 0x1 ADD SWAP1 DUP1 DUP4 GT PUSH2 0x47F JUMPI POP POP PUSH1 0x40 DUP1 MLOAD PUSH1 0x60 DUP2 ADD SWAP2 DUP3 SWAP1 MSTORE SWAP5 SWAP9 POP DUP8 SWAP4 POP PUSH1 0x3 SWAP3 POP SWAP1 POP DUP3 DUP5 JUMPDEST DUP2 SLOAD DUP2 MSTORE PUSH1 0x20 ADD SWAP1 PUSH1 0x1 ADD SWAP1 DUP1 DUP4 GT PUSH2 0x4AF JUMPI POP POP POP POP POP SWAP3 POP SWAP6 POP SWAP6 POP SWAP6 POP SWAP6 POP SWAP6 POP POP SWAP2 SWAP4 SWAP6 SWAP1 SWAP3 SWAP5 POP JUMP JUMPDEST PUSH1 0x2 PUSH1 0x0 SLOAD SUB PUSH2 0x508 JUMPI PUSH1 0x40 MLOAD PUSH3 0x461BCD PUSH1 0xE5 SHL DUP2 MSTORE PUSH1 0x4 ADD PUSH2 0x4FF SWAP1 PUSH2 0x1567 JUMP JUMPDEST PUSH1 0x40 MLOAD DUP1 SWAP2 SUB SWAP1 REVERT JUMPDEST PUSH1 0x2 PUSH1 0x0 SWAP1 DUP2 SSTORE DUP2 DUP2 MSTORE PUSH1 0x3 PUSH1 0x20 MSTORE PUSH1 0x40 SWAP1 KECCAK256 PUSH1 0x7 DUP2 ADD SLOAD PUSH2 0x100 SWAP1 DIV PUSH1 0xFF AND PUSH2 0x56B JUMPI PUSH1 0x40 MLOAD PUSH3 0x461BCD PUSH1 0xE5 SHL DUP2 MSTORE PUSH1 0x20 PUSH1 0x4 DUP3 ADD MSTORE PUSH1 0x14 PUSH1 0x24 DUP3 ADD MSTORE PUSH20 0x11185E481B9BDD081C995CDBDB1D9959081E595D PUSH1 0x62 SHL PUSH1 0x44 DUP3 ADD MSTORE PUSH1 0x64 ADD PUSH2 0x4FF JUMP JUMPDEST PUSH1 0x7 DUP2 ADD SLOAD PUSH4 0x1000000 SWAP1 DIV PUSH1 0xFF AND ISZERO PUSH2 0x5C7 JUMPI PUSH1 0x40 MLOAD PUSH3 0x461BCD PUSH1 0xE5 SHL DUP2 MSTORE PUSH1 0x20 PUSH1 0x4 DUP3 ADD MSTORE PUSH1 0x1E PUSH1 0x24 DUP3 ADD MSTORE PUSH32 0x4E6F2077696E6E657273202D2075736520636C61696D526566756E6428290000 PUSH1 0x44 DUP3 ADD MSTORE PUSH1 0x64 ADD PUSH2 0x4FF JUMP JUMPDEST PUSH1 0x0 DUP3 DUP2 MSTORE PUSH1 0x4 PUSH1 0x20 SWAP1 DUP2 MSTORE PUSH1 0x40 DUP1 DUP4 KECCAK256 CALLER DUP5 MSTORE SWAP1 SWAP2 MSTORE SWAP1 KECCAK256 DUP1 SLOAD PUSH2 0x100 SWAP1 DIV PUSH1 0xFF AND PUSH2 0x627 JUMPI PUSH1 0x40 MLOAD PUSH3 0x461BCD PUSH1 0xE5 SHL DUP2 MSTORE PUSH1 0x20 PUSH1 0x4 DUP3 ADD MSTORE PUSH1 0xE PUSH1 0x24 DUP3 ADD MSTORE PUSH14 0x139BC81CDD185AD948199BDD5B99 PUSH1 0x92 SHL PUSH1 0x44 DUP3 ADD MSTORE PUSH1 0x64 ADD PUSH2 0x4FF JUMP JUMPDEST DUP1 SLOAD PUSH3 0x10000 SWAP1 DIV PUSH1 0xFF AND ISZERO PUSH2 0x671 JUMPI PUSH1 0x40 MLOAD PUSH3 0x461BCD PUSH1 0xE5 SHL DUP2 MSTORE PUSH1 0x20 PUSH1 0x4 DUP3 ADD MSTORE PUSH1 0xF PUSH1 0x24 DUP3 ADD MSTORE PUSH15 0x105B1C9958591E4818DB185A5B5959 PUSH1 0x8A SHL PUSH1 0x44 DUP3 ADD MSTORE PUSH1 0x64 ADD PUSH2 0x4FF JUMP JUMPDEST PUSH1 0x7 DUP3 ADD SLOAD DUP2 SLOAD PUSH1 0xFF SWAP2 DUP3 AND SWAP2 AND PUSH1 0x2 DUP2 GT ISZERO PUSH2 0x690 JUMPI PUSH2 0x690 PUSH2 0x150B JUMP JUMPDEST PUSH1 0xFF AND EQ PUSH2 0x6CF JUMPI PUSH1 0x40 MLOAD PUSH3 0x461BCD PUSH1 0xE5 SHL DUP2 MSTORE PUSH1 0x20 PUSH1 0x4 DUP3 ADD MSTORE PUSH1 0xC PUSH1 0x24 DUP3 ADD MSTORE PUSH12 0x2737BA1030903BB4B73732B9 PUSH1 0xA1 SHL PUSH1 0x44 DUP3 ADD MSTORE PUSH1 0x64 ADD PUSH2 0x4FF JUMP JUMPDEST PUSH1 0x7 DUP3 ADD SLOAD PUSH1 0x0 SWAP1 PUSH1 0x4 DUP5 ADD SWAP1 PUSH1 0xFF AND PUSH1 0x3 DUP2 LT PUSH2 0x6EF JUMPI PUSH2 0x6EF PUSH2 0x159E JUMP JUMPDEST ADD SLOAD DUP3 SLOAD PUSH3 0xFF0000 NOT AND PUSH3 0x10000 OR DUP4 SSTORE PUSH1 0x9 DUP5 ADD DUP1 SLOAD SWAP2 SWAP3 POP PUSH1 0x1 SWAP2 PUSH1 0x0 SWAP1 PUSH2 0x71A SWAP1 DUP5 SWAP1 PUSH2 0x15CA JUMP JUMPDEST SWAP3 POP POP DUP2 SWAP1 SSTORE POP PUSH1 0x0 DUP2 DUP5 PUSH1 0x9 ADD SLOAD SUB PUSH2 0x746 JUMPI PUSH1 0xA DUP5 ADD SLOAD DUP5 SLOAD PUSH2 0x73F SWAP2 SWAP1 PUSH2 0x15E3 JUMP JUMPDEST SWAP1 POP PUSH2 0x756 JUMP JUMPDEST DUP4 SLOAD PUSH2 0x753 SWAP1 DUP4 SWAP1 PUSH2 0x15F6 JUMP JUMPDEST SWAP1 POP JUMPDEST PUSH1 0x2 SLOAD DUP2 LT ISZERO PUSH2 0x7B7 JUMPI PUSH1 0x40 MLOAD PUSH3 0x461BCD PUSH1 0xE5 SHL DUP2 MSTORE PUSH1 0x20 PUSH1 0x4 DUP3 ADD MSTORE PUSH1 0x26 PUSH1 0x24 DUP3 ADD MSTORE PUSH32 0x496E76617269616E742076696F6C617465643A207061796F75742062656C6F77 PUSH1 0x44 DUP3 ADD MSTORE PUSH6 0x207374616B65 PUSH1 0xD0 SHL PUSH1 0x64 DUP3 ADD MSTORE PUSH1 0x84 ADD PUSH2 0x4FF JUMP JUMPDEST DUP1 DUP5 PUSH1 0xA ADD PUSH1 0x0 DUP3 DUP3 SLOAD PUSH2 0x7CB SWAP2 SWAP1 PUSH2 0x15CA JUMP JUMPDEST SWAP1 SWAP2 SSTORE POP POP PUSH1 0x40 MLOAD PUSH1 0x0 SWAP1 CALLER SWAP1 DUP4 SWAP1 DUP4 DUP2 DUP2 DUP2 DUP6 DUP8 GAS CALL SWAP3 POP POP POP RETURNDATASIZE DUP1 PUSH1 0x0 DUP2 EQ PUSH2 0x812 JUMPI PUSH1 0x40 MLOAD SWAP2 POP PUSH1 0x1F NOT PUSH1 0x3F RETURNDATASIZE ADD AND DUP3 ADD PUSH1 0x40 MSTORE RETURNDATASIZE DUP3 MSTORE RETURNDATASIZE PUSH1 0x0 PUSH1 0x20 DUP5 ADD RETURNDATACOPY PUSH2 0x817 JUMP JUMPDEST PUSH1 0x60 SWAP2 POP JUMPDEST POP POP SWAP1 POP DUP1 PUSH2 0x838 JUMPI PUSH1 0x40 MLOAD PUSH3 0x461BCD PUSH1 0xE5 SHL DUP2 MSTORE PUSH1 0x4 ADD PUSH2 0x4FF SWAP1 PUSH2 0x1618 JUMP JUMPDEST PUSH1 0x40 MLOAD DUP3 DUP2 MSTORE DUP7 SWAP1 CALLER SWAP1 PUSH32 0x987D620F307FF6B94D58743CB7A7509F24071586A77759B77C2D4E29F75A2F9A SWAP1 PUSH1 0x20 ADD PUSH1 0x40 MLOAD DUP1 SWAP2 SUB SWAP1 LOG3 POP POP PUSH1 0x1 PUSH1 0x0 SSTORE POP POP POP POP JUMP JUMPDEST PUSH1 0x1 SLOAD PUSH1 0x1 PUSH1 0x1 PUSH1 0xA0 SHL SUB AND CALLER EQ PUSH2 0x8A6 JUMPI PUSH1 0x40 MLOAD PUSH3 0x461BCD PUSH1 0xE5 SHL DUP2 MSTORE PUSH1 0x4 ADD PUSH2 0x4FF SWAP1 PUSH2 0x1641 JUMP JUMPDEST PUSH1 0x2 SSTORE JUMP JUMPDEST PUSH1 0x2 PUSH1 0x0 SLOAD SUB PUSH2 0x8CD JUMPI PUSH1 0x40 MLOAD PUSH3 0x461BCD PUSH1 0xE5 SHL DUP2 MSTORE PUSH1 0x4 ADD PUSH2 0x4FF SWAP1 PUSH2 0x1567 JUMP JUMPDEST PUSH1 0x2 PUSH1 0x0 SWAP1 DUP2 SSTORE DUP2 DUP2 MSTORE PUSH1 0x3 PUSH1 0x20 MSTORE PUSH1 0x40 SWAP1 KECCAK256 PUSH1 0x7 DUP2 ADD SLOAD PUSH2 0x100 SWAP1 DIV PUSH1 0xFF AND PUSH2 0x930 JUMPI PUSH1 0x40 MLOAD PUSH3 0x461BCD PUSH1 0xE5 SHL DUP2 MSTORE PUSH1 0x20 PUSH1 0x4 DUP3 ADD MSTORE PUSH1 0x14 PUSH1 0x24 DUP3 ADD MSTORE PUSH20 0x11185E481B9BDD081C995CDBDB1D9959081E595D PUSH1 0x62 SHL PUSH1 0x44 DUP3 ADD MSTORE PUSH1 0x64 ADD PUSH2 0x4FF JUMP JUMPDEST PUSH1 0x7 DUP2 ADD SLOAD PUSH4 0x1000000 SWAP1 DIV PUSH1 0xFF AND PUSH2 0x983 JUMPI PUSH1 0x40 MLOAD PUSH3 0x461BCD PUSH1 0xE5 SHL DUP2 MSTORE PUSH1 0x20 PUSH1 0x4 DUP3 ADD MSTORE PUSH1 0x15 PUSH1 0x24 DUP3 ADD MSTORE PUSH21 0x446179206973206E6F7420726566756E6461626C65 PUSH1 0x58 SHL PUSH1 0x44 DUP3 ADD MSTORE PUSH1 0x64 ADD PUSH2 0x4FF JUMP JUMPDEST PUSH1 0x0 DUP3 DUP2 MSTORE PUSH1 0x4 PUSH1 0x20 SWAP1 DUP2 MSTORE PUSH1 0x40 DUP1 DUP4 KECCAK256 CALLER DUP5 MSTORE SWAP1 SWAP2 MSTORE SWAP1 KECCAK256 DUP1 SLOAD PUSH2 0x100 SWAP1 DIV PUSH1 0xFF AND PUSH2 0x9E3 JUMPI PUSH1 0x40 MLOAD PUSH3 0x461BCD PUSH1 0xE5 SHL DUP2 MSTORE PUSH1 0x20 PUSH1 0x4 DUP3 ADD MSTORE PUSH1 0xE PUSH1 0x24 DUP3 ADD MSTORE PUSH14 0x139BC81CDD185AD948199BDD5B99 PUSH1 0x92 SHL PUSH1 0x44 DUP3 ADD MSTORE PUSH1 0x64 ADD PUSH2 0x4FF JUMP JUMPDEST DUP1 SLOAD PUSH3 0x10000 SWAP1 DIV PUSH1 0xFF AND ISZERO PUSH2 0xA2E JUMPI PUSH1 0x40 MLOAD PUSH3 0x461BCD PUSH1 0xE5 SHL DUP2 MSTORE PUSH1 0x20 PUSH1 0x4 DUP3 ADD MSTORE PUSH1 0x10 PUSH1 0x24 DUP3 ADD MSTORE PUSH16 0x105B1C9958591E481C99599D5B991959 PUSH1 0x82 SHL PUSH1 0x44 DUP3 ADD MSTORE PUSH1 0x64 ADD PUSH2 0x4FF JUMP JUMPDEST DUP1 SLOAD PUSH3 0xFF0000 NOT AND PUSH3 0x10000 OR DUP2 SSTORE PUSH1 0x9 DUP3 ADD DUP1 SLOAD PUSH1 0x1 SWAP2 SWAP1 PUSH1 0x0 SWAP1 PUSH2 0xA55 SWAP1 DUP5 SWAP1 PUSH2 0x15CA JUMP JUMPDEST SWAP1 SWAP2 SSTORE POP POP PUSH1 0x2 SLOAD PUSH1 0xA DUP4 ADD DUP1 SLOAD PUSH1 0x0 SWAP1 PUSH2 0xA71 SWAP1 DUP5 SWAP1 PUSH2 0x15CA JUMP JUMPDEST SWAP1 SWAP2 SSTORE POP POP PUSH1 0x2 SLOAD PUSH1 0x40 MLOAD PUSH1 0x0 SWAP2 CALLER SWAP2 DUP4 DUP2 DUP2 DUP2 DUP6 DUP8 GAS CALL SWAP3 POP POP POP RETURNDATASIZE DUP1 PUSH1 0x0 DUP2 EQ PUSH2 0xAB9 JUMPI PUSH1 0x40 MLOAD SWAP2 POP PUSH1 0x1F NOT PUSH1 0x3F RETURNDATASIZE ADD AND DUP3 ADD PUSH1 0x40 MSTORE RETURNDATASIZE DUP3 MSTORE RETURNDATASIZE PUSH1 0x0 PUSH1 0x20 DUP5 ADD RETURNDATACOPY PUSH2 0xABE JUMP JUMPDEST PUSH1 0x60 SWAP2 POP JUMPDEST POP POP SWAP1 POP DUP1 PUSH2 0xADF JUMPI PUSH1 0x40 MLOAD PUSH3 0x461BCD PUSH1 0xE5 SHL DUP2 MSTORE PUSH1 0x4 ADD PUSH2 0x4FF SWAP1 PUSH2 0x1618 JUMP JUMPDEST DUP4 CALLER PUSH1 0x1 PUSH1 0x1 PUSH1 0xA0 SHL SUB AND PUSH32 0x2DC8E290002F06FC0085BBCA9DFB8B415CF4D1178950C72FF9EE8F4D8878EE66 PUSH1 0x2 SLOAD PUSH1 0x40 MLOAD PUSH2 0xB1D SWAP2 DUP2 MSTORE PUSH1 0x20 ADD SWAP1 JUMP JUMPDEST PUSH1 0x40 MLOAD DUP1 SWAP2 SUB SWAP1 LOG3 POP POP PUSH1 0x1 PUSH1 0x0 SSTORE POP POP JUMP JUMPDEST PUSH1 0x1 SLOAD PUSH1 0x1 PUSH1 0x1 PUSH1 0xA0 SHL SUB AND CALLER EQ PUSH2 0xB5A JUMPI PUSH1 0x40 MLOAD PUSH3 0x461BCD PUSH1 0xE5 SHL DUP2 MSTORE PUSH1 0x4 ADD PUSH2 0x4FF SWAP1 PUSH2 0x1641 JUMP JUMPDEST PUSH1 0x0 DUP3 DUP2 MSTORE PUSH1 0x3 PUSH1 0x20 MSTORE PUSH1 0x40 SWAP1 KECCAK256 PUSH1 0x7 DUP2 ADD SLOAD PUSH2 0x100 SWAP1 DIV PUSH1 0xFF AND PUSH2 0xBB4 JUMPI PUSH1 0x40 MLOAD PUSH3 0x461BCD PUSH1 0xE5 SHL DUP2 MSTORE PUSH1 0x20 PUSH1 0x4 DUP3 ADD MSTORE PUSH1 0x10 PUSH1 0x24 DUP3 ADD MSTORE PUSH16 0x11185E481B9BDD081C995CDBDB1D9959 PUSH1 0x82 SHL PUSH1 0x44 DUP3 ADD MSTORE PUSH1 0x64 ADD PUSH2 0x4FF JUMP JUMPDEST PUSH3 0x93A80 DUP2 PUSH1 0x8 ADD SLOAD PUSH2 0xBC7 SWAP2 SWAP1 PUSH2 0x15CA JUMP JUMPDEST TIMESTAMP LT ISZERO PUSH2 0xC16 JUMPI PUSH1 0x40 MLOAD PUSH3 0x461BCD PUSH1 0xE5 SHL DUP2 MSTORE PUSH1 0x20 PUSH1 0x4 DUP3 ADD MSTORE PUSH1 0x17 PUSH1 0x24 DUP3 ADD MSTORE PUSH32 0x436C61696D2077696E646F77207374696C6C206F70656E000000000000000000 PUSH1 0x44 DUP3 ADD MSTORE PUSH1 0x64 ADD PUSH2 0x4FF JUMP JUMPDEST PUSH1 0xA DUP2 ADD SLOAD DUP2 SLOAD PUSH1 0x0 SWAP2 PUSH2 0xC29 SWAP2 PUSH2 0x15E3 JUMP JUMPDEST SWAP1 POP DUP1 DUP4 GT ISZERO PUSH2 0xC7B JUMPI PUSH1 0x40 MLOAD PUSH3 0x461BCD PUSH1 0xE5 SHL DUP2 MSTORE PUSH1 0x20 PUSH1 0x4 DUP3 ADD DUP2 SWAP1 MSTORE PUSH1 0x24 DUP3 ADD MSTORE PUSH32 0x416D6F756E74206578636565647320756E636C61696D65642062616C616E6365 PUSH1 0x44 DUP3 ADD MSTORE PUSH1 0x64 ADD PUSH2 0x4FF JUMP JUMPDEST DUP3 DUP3 PUSH1 0xA ADD PUSH1 0x0 DUP3 DUP3 SLOAD PUSH2 0xC8F SWAP2 SWAP1 PUSH2 0x15CA JUMP JUMPDEST SWAP1 SWAP2 SSTORE POP POP PUSH1 0x1 SLOAD PUSH1 0x40 MLOAD PUSH1 0x0 SWAP2 PUSH1 0x1 PUSH1 0x1 PUSH1 0xA0 SHL SUB AND SWAP1 DUP6 SWAP1 DUP4 DUP2 DUP2 DUP2 DUP6 DUP8 GAS CALL SWAP3 POP POP POP RETURNDATASIZE DUP1 PUSH1 0x0 DUP2 EQ PUSH2 0xCE1 JUMPI PUSH1 0x40 MLOAD SWAP2 POP PUSH1 0x1F NOT PUSH1 0x3F RETURNDATASIZE ADD AND DUP3 ADD PUSH1 0x40 MSTORE RETURNDATASIZE DUP3 MSTORE RETURNDATASIZE PUSH1 0x0 PUSH1 0x20 DUP5 ADD RETURNDATACOPY PUSH2 0xCE6 JUMP JUMPDEST PUSH1 0x60 SWAP2 POP JUMPDEST POP POP SWAP1 POP DUP1 PUSH2 0xD07 JUMPI PUSH1 0x40 MLOAD PUSH3 0x461BCD PUSH1 0xE5 SHL DUP2 MSTORE PUSH1 0x4 ADD PUSH2 0x4FF SWAP1 PUSH2 0x1618 JUMP JUMPDEST POP POP POP POP POP JUMP JUMPDEST PUSH1 0x2 PUSH1 0x0 SLOAD SUB PUSH2 0xD30 JUMPI PUSH1 0x40 MLOAD PUSH3 0x461BCD PUSH1 0xE5 SHL DUP2 MSTORE PUSH1 0x4 ADD PUSH2 0x4FF SWAP1 PUSH2 0x1567 JUMP JUMPDEST PUSH1 0x2 PUSH1 0x0 DUP2 SWAP1 SSTORE PUSH1 0xFF DUP3 AND GT ISZERO PUSH2 0xD7A JUMPI PUSH1 0x40 MLOAD PUSH3 0x461BCD PUSH1 0xE5 SHL DUP2 MSTORE PUSH1 0x20 PUSH1 0x4 DUP3 ADD MSTORE PUSH1 0xE PUSH1 0x24 DUP3 ADD MSTORE PUSH14 0x24B73B30B634B21037B83A34B7B7 PUSH1 0x91 SHL PUSH1 0x44 DUP3 ADD MSTORE PUSH1 0x64 ADD PUSH2 0x4FF JUMP JUMPDEST PUSH1 0x2 SLOAD CALLVALUE EQ PUSH2 0xDC0 JUMPI PUSH1 0x40 MLOAD PUSH3 0x461BCD PUSH1 0xE5 SHL DUP2 MSTORE PUSH1 0x20 PUSH1 0x4 DUP3 ADD MSTORE PUSH1 0x12 PUSH1 0x24 DUP3 ADD MSTORE PUSH18 0x15DC9BDB99C81CDD185AD948185B5BDD5B9D PUSH1 0x72 SHL PUSH1 0x44 DUP3 ADD MSTORE PUSH1 0x64 ADD PUSH2 0x4FF JUMP JUMPDEST PUSH1 0x5 SLOAD PUSH1 0x0 SWAP1 DUP2 MSTORE PUSH1 0x3 PUSH1 0x20 MSTORE PUSH1 0x40 SWAP1 KECCAK256 PUSH1 0x7 DUP2 ADD SLOAD PUSH3 0x10000 SWAP1 DIV PUSH1 0xFF AND PUSH2 0xE1A JUMPI PUSH1 0x40 MLOAD PUSH3 0x461BCD PUSH1 0xE5 SHL DUP2 MSTORE PUSH1 0x20 PUSH1 0x4 DUP3 ADD MSTORE PUSH1 0xC PUSH1 0x24 DUP3 ADD MSTORE PUSH12 0x2230BC903737BA1037B832B7 PUSH1 0xA1 SHL PUSH1 0x44 DUP3 ADD MSTORE PUSH1 0x64 ADD PUSH2 0x4FF JUMP JUMPDEST PUSH1 0x7 DUP2 ADD SLOAD PUSH2 0x100 SWAP1 DIV PUSH1 0xFF AND ISZERO PUSH2 0xE6B JUMPI PUSH1 0x40 MLOAD PUSH3 0x461BCD PUSH1 0xE5 SHL DUP2 MSTORE PUSH1 0x20 PUSH1 0x4 DUP3 ADD MSTORE PUSH1 0x14 PUSH1 0x24 DUP3 ADD MSTORE PUSH20 0x11185E48185B1C9958591E481C995CDBDB1D9959 PUSH1 0x62 SHL PUSH1 0x44 DUP3 ADD MSTORE PUSH1 0x64 ADD PUSH2 0x4FF JUMP JUMPDEST PUSH1 0x5 SLOAD PUSH1 0x0 SWAP1 DUP2 MSTORE PUSH1 0x4 PUSH1 0x20 SWAP1 DUP2 MSTORE PUSH1 0x40 DUP1 DUP4 KECCAK256 CALLER DUP5 MSTORE SWAP1 SWAP2 MSTORE SWAP1 KECCAK256 SLOAD PUSH2 0x100 SWAP1 DIV PUSH1 0xFF AND ISZERO PUSH2 0xED4 JUMPI PUSH1 0x40 MLOAD PUSH3 0x461BCD PUSH1 0xE5 SHL DUP2 MSTORE PUSH1 0x20 PUSH1 0x4 DUP3 ADD MSTORE PUSH1 0x14 PUSH1 0x24 DUP3 ADD MSTORE PUSH20 0x416C7265616479207374616B656420746F646179 PUSH1 0x60 SHL PUSH1 0x44 DUP3 ADD MSTORE PUSH1 0x64 ADD PUSH2 0x4FF JUMP JUMPDEST PUSH1 0x40 MLOAD DUP1 PUSH1 0x60 ADD PUSH1 0x40 MSTORE DUP1 DUP4 PUSH1 0xFF AND PUSH1 0x2 DUP2 GT ISZERO PUSH2 0xEF4 JUMPI PUSH2 0xEF4 PUSH2 0x150B JUMP JUMPDEST PUSH1 0x2 DUP2 GT ISZERO PUSH2 0xF05 JUMPI PUSH2 0xF05 PUSH2 0x150B JUMP JUMPDEST DUP2 MSTORE PUSH1 0x1 PUSH1 0x20 DUP1 DUP4 ADD DUP3 SWAP1 MSTORE PUSH1 0x0 PUSH1 0x40 SWAP4 DUP5 ADD DUP2 SWAP1 MSTORE PUSH1 0x5 SLOAD DUP2 MSTORE PUSH1 0x4 DUP3 MSTORE DUP4 DUP2 KECCAK256 CALLER DUP3 MSTORE SWAP1 SWAP2 MSTORE SWAP2 SWAP1 SWAP2 KECCAK256 DUP3 MLOAD DUP2 SLOAD SWAP2 SWAP3 SWAP1 SWAP2 DUP4 SWAP2 PUSH1 0xFF NOT SWAP1 SWAP2 AND SWAP1 DUP4 PUSH1 0x2 DUP2 GT ISZERO PUSH2 0xF54 JUMPI PUSH2 0xF54 PUSH2 0x150B JUMP JUMPDEST MUL OR SWAP1 SSTORE POP PUSH1 0x20 DUP3 ADD MLOAD DUP2 SLOAD PUSH1 0x40 SWAP1 SWAP4 ADD MLOAD ISZERO ISZERO PUSH3 0x10000 MUL PUSH3 0xFF0000 NOT SWAP2 ISZERO ISZERO PUSH2 0x100 MUL SWAP2 SWAP1 SWAP2 AND PUSH3 0xFFFF00 NOT SWAP1 SWAP4 AND SWAP3 SWAP1 SWAP3 OR SWAP2 SWAP1 SWAP2 OR SWAP1 SSTORE DUP1 SLOAD CALLVALUE SWAP1 DUP3 SWAP1 PUSH1 0x0 SWAP1 PUSH2 0xFA3 SWAP1 DUP5 SWAP1 PUSH2 0x15CA JUMP JUMPDEST SWAP1 SWAP2 SSTORE POP CALLVALUE SWAP1 POP PUSH1 0x1 DUP3 ADD PUSH1 0xFF DUP5 AND PUSH1 0x3 DUP2 LT PUSH2 0xFC2 JUMPI PUSH2 0xFC2 PUSH2 0x159E JUMP JUMPDEST ADD PUSH1 0x0 DUP3 DUP3 SLOAD PUSH2 0xFD2 SWAP2 SWAP1 PUSH2 0x15CA JUMP JUMPDEST SWAP1 SWAP2 SSTORE POP PUSH1 0x1 SWAP1 POP PUSH1 0x4 DUP3 ADD PUSH1 0xFF DUP5 AND PUSH1 0x3 DUP2 LT PUSH2 0xFF2 JUMPI PUSH2 0xFF2 PUSH2 0x159E JUMP JUMPDEST ADD PUSH1 0x0 DUP3 DUP3 SLOAD PUSH2 0x1002 SWAP2 SWAP1 PUSH2 0x15CA JUMP JUMPDEST SWAP1 SWAP2 SSTORE POP POP PUSH1 0x5 SLOAD CALLER PUSH32 0xBDE7F0BA1630D25515C7AB99BA47D5640B7FFB4C673B2A5464AE679195589298 PUSH1 0xFF DUP6 AND PUSH1 0x2 DUP2 GT ISZERO PUSH2 0x1041 JUMPI PUSH2 0x1041 PUSH2 0x150B JUMP JUMPDEST CALLVALUE PUSH1 0x40 MLOAD PUSH2 0x1050 SWAP3 SWAP2 SWAP1 PUSH2 0x1664 JUMP JUMPDEST PUSH1 0x40 MLOAD DUP1 SWAP2 SUB SWAP1 LOG3 POP POP PUSH1 0x1 PUSH1 0x0 SSTORE JUMP JUMPDEST PUSH1 0x1 SLOAD PUSH1 0x1 PUSH1 0x1 PUSH1 0xA0 SHL SUB AND CALLER EQ PUSH2 0x108B JUMPI PUSH1 0x40 MLOAD PUSH3 0x461BCD PUSH1 0xE5 SHL DUP2 MSTORE PUSH1 0x4 ADD PUSH2 0x4FF SWAP1 PUSH2 0x1641 JUMP JUMPDEST PUSH1 0x1 PUSH1 0x1 PUSH1 0xA0 SHL SUB DUP2 AND PUSH2 0x10D0 JUMPI PUSH1 0x40 MLOAD PUSH3 0x461BCD PUSH1 0xE5 SHL DUP2 MSTORE PUSH1 0x20 PUSH1 0x4 DUP3 ADD MSTORE PUSH1 0xC PUSH1 0x24 DUP3 ADD MSTORE PUSH12 0x5A65726F2061646472657373 PUSH1 0xA0 SHL PUSH1 0x44 DUP3 ADD MSTORE PUSH1 0x64 ADD PUSH2 0x4FF JUMP JUMPDEST PUSH1 0x1 DUP1 SLOAD PUSH1 0x1 PUSH1 0x1 PUSH1 0xA0 SHL SUB NOT AND PUSH1 0x1 PUSH1 0x1 PUSH1 0xA0 SHL SUB SWAP3 SWAP1 SWAP3 AND SWAP2 SWAP1 SWAP2 OR SWAP1 SSTORE JUMP JUMPDEST PUSH1 0x0 DUP3 DUP2 MSTORE PUSH1 0x4 PUSH1 0x20 SWAP1 DUP2 MSTORE PUSH1 0x40 DUP1 DUP4 KECCAK256 PUSH1 0x1 PUSH1 0x1 PUSH1 0xA0 SHL SUB DUP6 AND DUP5 MSTORE SWAP1 SWAP2 MSTORE DUP2 KECCAK256 DUP1 SLOAD DUP3 SWAP2 DUP3 SWAP2 PUSH1 0xFF PUSH2 0x100 DUP3 DIV DUP2 AND SWAP2 AND PUSH1 0x2 DUP2 GT ISZERO PUSH2 0x1136 JUMPI PUSH2 0x1136 PUSH2 0x150B JUMP JUMPDEST SWAP2 SLOAD SWAP1 SWAP8 SWAP2 SWAP7 POP PUSH3 0x10000 SWAP1 DIV PUSH1 0xFF AND SWAP5 POP SWAP3 POP POP POP JUMP JUMPDEST PUSH1 0x1 SLOAD PUSH1 0x1 PUSH1 0x1 PUSH1 0xA0 SHL SUB AND CALLER EQ PUSH2 0x1178 JUMPI PUSH1 0x40 MLOAD PUSH3 0x461BCD PUSH1 0xE5 SHL DUP2 MSTORE PUSH1 0x4 ADD PUSH2 0x4FF SWAP1 PUSH2 0x1641 JUMP JUMPDEST PUSH1 0x2 DUP2 PUSH1 0xFF AND GT ISZERO PUSH2 0x11BD JUMPI PUSH1 0x40 MLOAD PUSH3 0x461BCD PUSH1 0xE5 SHL DUP2 MSTORE PUSH1 0x20 PUSH1 0x4 DUP3 ADD MSTORE PUSH1 0xE PUSH1 0x24 DUP3 ADD MSTORE PUSH14 0x24B73B30B634B2103BB4B73732B9 PUSH1 0x91 SHL PUSH1 0x44 DUP3 ADD MSTORE PUSH1 0x64 ADD PUSH2 0x4FF JUMP JUMPDEST PUSH1 0x5 SLOAD PUSH1 0x0 SWAP1 DUP2 MSTORE PUSH1 0x3 PUSH1 0x20 MSTORE PUSH1 0x40 SWAP1 KECCAK256 PUSH1 0x7 DUP2 ADD SLOAD PUSH3 0x10000 SWAP1 DIV PUSH1 0xFF AND PUSH2 0x1217 JUMPI PUSH1 0x40 MLOAD PUSH3 0x461BCD PUSH1 0xE5 SHL DUP2 MSTORE PUSH1 0x20 PUSH1 0x4 DUP3 ADD MSTORE PUSH1 0xC PUSH1 0x24 DUP3 ADD MSTORE PUSH12 0x2230BC903737BA1037B832B7 PUSH1 0xA1 SHL PUSH1 0x44 DUP3 ADD MSTORE PUSH1 0x64 ADD PUSH2 0x4FF JUMP JUMPDEST PUSH1 0x7 DUP2 ADD SLOAD PUSH2 0x100 SWAP1 DIV PUSH1 0xFF AND ISZERO PUSH2 0x1264 JUMPI PUSH1 0x40 MLOAD PUSH3 0x461BCD PUSH1 0xE5 SHL DUP2 MSTORE PUSH1 0x20 PUSH1 0x4 DUP3 ADD MSTORE PUSH1 0x10 PUSH1 0x24 DUP3 ADD MSTORE PUSH16 0x105B1C9958591E481C995CDBDB1D9959 PUSH1 0x82 SHL PUSH1 0x44 DUP3 ADD MSTORE PUSH1 0x64 ADD PUSH2 0x4FF JUMP JUMPDEST PUSH1 0x7 DUP2 ADD DUP1 SLOAD PUSH2 0xFFFF NOT AND PUSH1 0xFF DUP5 AND SWAP1 DUP2 OR PUSH2 0x100 OR SWAP1 SWAP2 SSTORE TIMESTAMP PUSH1 0x8 DUP4 ADD SSTORE PUSH1 0x0 SWAP1 PUSH1 0x4 DUP4 ADD SWAP1 PUSH1 0x3 DUP2 LT PUSH2 0x129B JUMPI PUSH2 0x129B PUSH2 0x159E JUMP JUMPDEST ADD SLOAD SWAP1 POP DUP1 PUSH1 0x0 SUB PUSH2 0x1300 JUMPI PUSH1 0x7 DUP3 ADD DUP1 SLOAD PUSH4 0xFF000000 NOT AND PUSH4 0x1000000 OR SWAP1 SSTORE PUSH1 0x5 SLOAD DUP3 SLOAD PUSH1 0x40 MLOAD PUSH32 0xA30D554B31EF1A2564A1208CD94343EF61AEA2EFFEDC3888790C398BDD009A03 SWAP2 PUSH2 0x12F3 SWAP2 SWAP1 DUP2 MSTORE PUSH1 0x20 ADD SWAP1 JUMP JUMPDEST PUSH1 0x40 MLOAD DUP1 SWAP2 SUB SWAP1 LOG2 PUSH2 0x1354 JUMP JUMPDEST PUSH1 0x5 SLOAD PUSH32 0xF708D5CF24BFD97B8D216250C0DD5061E1E623770CEB1A8B812A51EB932402D2 DUP5 PUSH1 0xFF AND PUSH1 0x2 DUP2 GT ISZERO PUSH2 0x1339 JUMPI PUSH2 0x1339 PUSH2 0x150B JUMP JUMPDEST DUP5 SLOAD PUSH1 0x40 MLOAD PUSH2 0x134B SWAP3 SWAP2 SWAP1 DUP7 SWAP1 PUSH2 0x167F JUMP JUMPDEST PUSH1 0x40 MLOAD DUP1 SWAP2 SUB SWAP1 LOG2 JUMPDEST PUSH1 0x1 PUSH1 0x5 PUSH1 0x0 DUP3 DUP3 SLOAD PUSH2 0x1367 SWAP2 SWAP1 PUSH2 0x15CA JUMP JUMPDEST SWAP1 SWAP2 SSTORE POP POP PUSH1 0x5 DUP1 SLOAD PUSH1 0x0 SWAP1 DUP2 MSTORE PUSH1 0x3 PUSH1 0x20 MSTORE PUSH1 0x40 DUP1 DUP3 KECCAK256 PUSH1 0x7 ADD DUP1 SLOAD PUSH3 0xFF0000 NOT AND PUSH3 0x10000 OR SWAP1 SSTORE SWAP2 SLOAD SWAP2 MLOAD PUSH32 0x3BE0A3A204F5DE4FB6C50E9EAFA1A22B8939161F238C3919B3BA45887AF1CF1D SWAP2 SWAP1 LOG2 POP POP POP JUMP JUMPDEST PUSH1 0x40 MLOAD DUP1 PUSH1 0x60 ADD PUSH1 0x40 MSTORE DUP1 PUSH1 0x3 SWAP1 PUSH1 0x20 DUP3 MUL DUP1 CALLDATASIZE DUP4 CALLDATACOPY POP SWAP2 SWAP3 SWAP2 POP POP JUMP JUMPDEST PUSH1 0x0 PUSH1 0x20 DUP3 DUP5 SUB SLT ISZERO PUSH2 0x13EE JUMPI PUSH1 0x0 DUP1 REVERT JUMPDEST POP CALLDATALOAD SWAP2 SWAP1 POP JUMP JUMPDEST DUP1 PUSH1 0x0 JUMPDEST PUSH1 0x3 DUP2 LT ISZERO PUSH2 0x1418 JUMPI DUP2 MLOAD DUP5 MSTORE PUSH1 0x20 SWAP4 DUP5 ADD SWAP4 SWAP1 SWAP2 ADD SWAP1 PUSH1 0x1 ADD PUSH2 0x13F9 JUMP JUMPDEST POP POP POP POP JUMP JUMPDEST DUP6 DUP2 MSTORE PUSH2 0x120 DUP2 ADD PUSH2 0x1433 PUSH1 0x20 DUP4 ADD DUP8 PUSH2 0x13F5 JUMP JUMPDEST PUSH2 0x1440 PUSH1 0x80 DUP4 ADD DUP7 PUSH2 0x13F5 JUMP JUMPDEST DUP4 ISZERO ISZERO PUSH1 0xE0 DUP4 ADD MSTORE PUSH1 0xFF DUP4 AND PUSH2 0x100 DUP4 ADD MSTORE SWAP7 SWAP6 POP POP POP POP POP POP JUMP JUMPDEST PUSH1 0x0 DUP1 PUSH1 0x40 DUP4 DUP6 SUB SLT ISZERO PUSH2 0x146F JUMPI PUSH1 0x0 DUP1 REVERT JUMPDEST POP POP DUP1 CALLDATALOAD SWAP3 PUSH1 0x20 SWAP1 SWAP2 ADD CALLDATALOAD SWAP2 POP JUMP JUMPDEST PUSH1 0x0 PUSH1 0x20 DUP3 DUP5 SUB SLT ISZERO PUSH2 0x1490 JUMPI PUSH1 0x0 DUP1 REVERT JUMPDEST DUP2 CALLDATALOAD PUSH1 0xFF DUP2 AND DUP2 EQ PUSH2 0x14A1 JUMPI PUSH1 0x0 DUP1 REVERT JUMPDEST SWAP4 SWAP3 POP POP POP JUMP JUMPDEST DUP1 CALLDATALOAD PUSH1 0x1 PUSH1 0x1 PUSH1 0xA0 SHL SUB DUP2 AND DUP2 EQ PUSH2 0x14BF JUMPI PUSH1 0x0 DUP1 REVERT JUMPDEST SWAP2 SWAP1 POP JUMP JUMPDEST PUSH1 0x0 PUSH1 0x20 DUP3 DUP5 SUB SLT ISZERO PUSH2 0x14D6 JUMPI PUSH1 0x0 DUP1 REVERT JUMPDEST PUSH2 0x14A1 DUP3 PUSH2 0x14A8 JUMP JUMPDEST PUSH1 0x0 DUP1 PUSH1 0x40 DUP4 DUP6 SUB SLT ISZERO PUSH2 0x14F2 JUMPI PUSH1 0x0 DUP1 REVERT JUMPDEST DUP3 CALLDATALOAD SWAP2 POP PUSH2 0x1502 PUSH1 0x20 DUP5 ADD PUSH2 0x14A8 JUMP JUMPDEST SWAP1 POP SWAP3 POP SWAP3 SWAP1 POP JUMP JUMPDEST PUSH4 0x4E487B71 PUSH1 0xE0 SHL PUSH1 0x0 MSTORE PUSH1 0x21 PUSH1 0x4 MSTORE PUSH1 0x24 PUSH1 0x0 REVERT JUMPDEST PUSH1 0x3 DUP2 LT PUSH2 0x153F JUMPI PUSH4 0x4E487B71 PUSH1 0xE0 SHL PUSH1 0x0 MSTORE PUSH1 0x21 PUSH1 0x4 MSTORE PUSH1 0x24 PUSH1 0x0 REVERT JUMPDEST SWAP1 MSTORE JUMP JUMPDEST PUSH1 0x60 DUP2 ADD PUSH2 0x1551 DUP3 DUP7 PUSH2 0x1521 JUMP JUMPDEST SWAP3 ISZERO ISZERO PUSH1 0x20 DUP3 ADD MSTORE SWAP1 ISZERO ISZERO PUSH1 0x40 SWAP1 SWAP2 ADD MSTORE SWAP2 SWAP1 POP JUMP JUMPDEST PUSH1 0x20 DUP1 DUP3 MSTORE PUSH1 0x1F SWAP1 DUP3 ADD MSTORE PUSH32 0x5265656E7472616E637947756172643A207265656E7472616E742063616C6C00 PUSH1 0x40 DUP3 ADD MSTORE PUSH1 0x60 ADD SWAP1 JUMP JUMPDEST PUSH4 0x4E487B71 PUSH1 0xE0 SHL PUSH1 0x0 MSTORE PUSH1 0x32 PUSH1 0x4 MSTORE PUSH1 0x24 PUSH1 0x0 REVERT JUMPDEST PUSH4 0x4E487B71 PUSH1 0xE0 SHL PUSH1 0x0 MSTORE PUSH1 0x11 PUSH1 0x4 MSTORE PUSH1 0x24 PUSH1 0x0 REVERT JUMPDEST DUP1 DUP3 ADD DUP1 DUP3 GT ISZERO PUSH2 0x15DD JUMPI PUSH2 0x15DD PUSH2 0x15B4 JUMP JUMPDEST SWAP3 SWAP2 POP POP JUMP JUMPDEST DUP2 DUP2 SUB DUP2 DUP2 GT ISZERO PUSH2 0x15DD JUMPI PUSH2 0x15DD PUSH2 0x15B4 JUMP JUMPDEST PUSH1 0x0 DUP3 PUSH2 0x1613 JUMPI PUSH4 0x4E487B71 PUSH1 0xE0 SHL PUSH1 0x0 MSTORE PUSH1 0x12 PUSH1 0x4 MSTORE PUSH1 0x24 PUSH1 0x0 REVERT JUMPDEST POP DIV SWAP1 JUMP JUMPDEST PUSH1 0x20 DUP1 DUP3 MSTORE PUSH1 0xF SWAP1 DUP3 ADD MSTORE PUSH15 0x151C985B9CD9995C8819985A5B1959 PUSH1 0x8A SHL PUSH1 0x40 DUP3 ADD MSTORE PUSH1 0x60 ADD SWAP1 JUMP JUMPDEST PUSH1 0x20 DUP1 DUP3 MSTORE PUSH1 0x9 SWAP1 DUP3 ADD MSTORE PUSH9 0x2737BA1030B236B4B7 PUSH1 0xB9 SHL PUSH1 0x40 DUP3 ADD MSTORE PUSH1 0x60 ADD SWAP1 JUMP JUMPDEST PUSH1 0x40 DUP2 ADD PUSH2 0x1672 DUP3 DUP6 PUSH2 0x1521 JUMP JUMPDEST DUP3 PUSH1 0x20 DUP4 ADD MSTORE SWAP4 SWAP3 POP POP POP JUMP JUMPDEST PUSH1 0x60 DUP2 ADD PUSH2 0x168D DUP3 DUP7 PUSH2 0x1521 JUMP JUMPDEST PUSH1 0x20 DUP3 ADD SWAP4 SWAP1 SWAP4 MSTORE PUSH1 0x40 ADD MSTORE SWAP2 SWAP1 POP JUMP INVALID LOG2 PUSH5 0x6970667358 0x22 SLT KECCAK256 0x1F 0x22 0xEF 0xB1 SUB 0x1E CALLCODE 0x26 0xC1 KECCAK256 PUSH27 0xF97A89463C78634C5CBB9A84F12F2697663D55111164736F6C6343 STOP ADDMOD XOR STOP CALLER "},"methodIdentifiers":{"CLAIM_WINDOW()":"9f34fc80","admin()":"f851a440","claim(uint256)":"379607f5","claimRefund(uint256)":"5b7baf64","currentDay()":"5c9302c9","days_(uint256)":"7bbb3b79","getDayInfo(uint256)":"15ff8dd9","getUserStake(uint256,address)":"9626a230","isDayRefundable(uint256)":"f16129dd","resolve(uint8)":"a0270dbc","setAdmin(address)":"704b6c02","setStakeAmount(uint256)":"43808c50","stake(uint8)":"604f2177","stakeAmount()":"60c7dc47","stakes(uint256,address)":"a9a3bba4","sweepDust(uint256,uint256)":"5e5aaefe"}}}}}