{"contracts/FateFiPool.sol":{"FateFiPool":{"abi":[{"inputs":[{"internalType":"uint256","name":"_stakeAmount","type":"uint256"}],"stateMutability":"nonpayable","type":"constructor"},{"anonymous":false,"inputs":[{"indexed":true,"internalType":"address","name":"user","type":"address"},{"indexed":true,"internalType":"uint256","name":"dayId","type":"uint256"},{"indexed":false,"internalType":"uint256","name":"payout","type":"uint256"}],"name":"Claimed","type":"event"},{"anonymous":false,"inputs":[{"indexed":true,"internalType":"uint256","name":"dayId","type":"uint256"},{"indexed":false,"internalType":"enum FateFiPool.Option","name":"winner","type":"uint8"},{"indexed":false,"internalType":"uint256","name":"totalPool","type":"uint256"},{"indexed":false,"internalType":"uint256","name":"winnerCount","type":"uint256"}],"name":"DayResolved","type":"event"},{"anonymous":false,"inputs":[{"indexed":true,"internalType":"uint256","name":"dayId","type":"uint256"}],"name":"NewDay","type":"event"},{"anonymous":false,"inputs":[{"indexed":true,"internalType":"address","name":"user","type":"address"},{"indexed":true,"internalType":"uint256","name":"dayId","type":"uint256"},{"indexed":false,"internalType":"enum FateFiPool.Option","name":"option","type":"uint8"},{"indexed":false,"internalType":"uint256","name":"amount","type":"uint256"}],"name":"Staked","type":"event"},{"inputs":[],"name":"admin","outputs":[{"internalType":"address","name":"","type":"address"}],"stateMutability":"view","type":"function"},{"inputs":[{"internalType":"uint256","name":"dayId","type":"uint256"}],"name":"claim","outputs":[],"stateMutability":"nonpayable","type":"function"},{"inputs":[],"name":"currentDay","outputs":[{"internalType":"uint256","name":"","type":"uint256"}],"stateMutability":"view","type":"function"},{"inputs":[{"internalType":"uint256","name":"","type":"uint256"}],"name":"days_","outputs":[{"internalType":"uint256","name":"totalStaked","type":"uint256"},{"internalType":"uint8","name":"winningOption","type":"uint8"},{"internalType":"bool","name":"resolved","type":"bool"},{"internalType":"bool","name":"exists","type":"bool"}],"stateMutability":"view","type":"function"},{"inputs":[{"internalType":"uint256","name":"dayId","type":"uint256"}],"name":"getDayInfo","outputs":[{"internalType":"uint256","name":"totalStaked","type":"uint256"},{"internalType":"uint256[3]","name":"optionTotals","type":"uint256[3]"},{"internalType":"uint256[3]","name":"optionCounts","type":"uint256[3]"},{"internalType":"bool","name":"resolved","type":"bool"},{"internalType":"uint8","name":"winningOption","type":"uint8"}],"stateMutability":"view","type":"function"},{"inputs":[{"internalType":"uint256","name":"dayId","type":"uint256"},{"internalType":"address","name":"user","type":"address"}],"name":"getUserStake","outputs":[{"internalType":"bool","name":"exists","type":"bool"},{"internalType":"uint8","name":"option","type":"uint8"},{"internalType":"bool","name":"claimed","type":"bool"}],"stateMutability":"view","type":"function"},{"inputs":[{"internalType":"uint8","name":"winner","type":"uint8"}],"name":"resolve","outputs":[],"stateMutability":"nonpayable","type":"function"},{"inputs":[{"internalType":"address","name":"newAdmin","type":"address"}],"name":"setAdmin","outputs":[],"stateMutability":"nonpayable","type":"function"},{"inputs":[{"internalType":"uint256","name":"_stakeAmount","type":"uint256"}],"name":"setStakeAmount","outputs":[],"stateMutability":"nonpayable","type":"function"},{"inputs":[{"internalType":"uint8","name":"option","type":"uint8"}],"name":"stake","outputs":[],"stateMutability":"payable","type":"function"},{"inputs":[],"name":"stakeAmount","outputs":[{"internalType":"uint256","name":"","type":"uint256"}],"stateMutability":"view","type":"function"},{"inputs":[{"internalType":"uint256","name":"","type":"uint256"},{"internalType":"address","name":"","type":"address"}],"name":"stakes","outputs":[{"internalType":"enum FateFiPool.Option","name":"option","type":"uint8"},{"internalType":"bool","name":"exists","type":"bool"},{"internalType":"bool","name":"claimed","type":"bool"}],"stateMutability":"view","type":"function"},{"inputs":[{"internalType":"uint256","name":"amount","type":"uint256"}],"name":"withdrawUnclaimed","outputs":[],"stateMutability":"nonpayable","type":"function"}],"evm":{"bytecode":{"linkReferences":{},"object":"608060405234801561001057600080fd5b5060405161108238038061108283398101604081905261002f916100b1565b600080546001600160a01b031916331781556001828155600481905580825260026020527fe90b7bceb6e7df5418fb78d8ee546e97c83a08bbccc01a0644d599ccd2a7c2e7805462ff000019166201000017905560405190917f3be0a3a204f5de4fb6c50e9eafa1a22b8939161f238c3919b3ba45887af1cf1d91a2506100ca565b6000602082840312156100c357600080fd5b5051919050565b610fa9806100d96000396000f3fe6080604052600436106100c25760003560e01c8063704b6c021161007f578063a0270dbc11610059578063a0270dbc14610265578063a9a3bba414610285578063e6634c67146102e2578063f851a4401461030257600080fd5b8063704b6c02146101905780637bbb3b79146101b05780639626a2301461022457600080fd5b806315ff8dd9146100c7578063379607f51461010157806343808c50146101235780635c9302c914610143578063604f21771461016757806360c7dc471461017a575b600080fd5b3480156100d357600080fd5b506100e76100e2366004610d4e565b61033a565b6040516100f8959493929190610d90565b60405180910390f35b34801561010d57600080fd5b5061012161011c366004610d4e565b6103eb565b005b34801561012f57600080fd5b5061012161013e366004610d4e565b610667565b34801561014f57600080fd5b5061015960045481565b6040519081526020016100f8565b610121610175366004610dce565b610696565b34801561018657600080fd5b5061015960015481565b34801561019c57600080fd5b506101216101ab366004610e14565b6109bd565b3480156101bc57600080fd5b506101fa6101cb366004610d4e565b6002602052600090815260409020805460079091015460ff808216916101008104821691620100009091041684565b6040805194855260ff909316602085015290151591830191909152151560608201526080016100f8565b34801561023057600080fd5b5061024461023f366004610e2f565b610a09565b60408051931515845260ff90921660208401521515908201526060016100f8565b34801561027157600080fd5b50610121610280366004610dce565b610a65565b34801561029157600080fd5b506102d36102a0366004610e2f565b600360209081526000928352604080842090915290825290205460ff808216916101008104821691620100009091041683565b6040516100f893929190610e93565b3480156102ee57600080fd5b506101216102fd366004610d4e565b610c6d565b34801561030e57600080fd5b50600054610322906001600160a01b031681565b6040516001600160a01b0390911681526020016100f8565b6000610344610d30565b61034c610d30565b600084815260026020526040808220805460078201548351606081019485905285946001850192600486019260ff6101008304811693921691859060039082845b81548152602001906001019080831161038d57505060408051606081019182905294985087935060039250905082845b8154815260200190600101908083116103bd5750505050509250955095509550955095505091939590929450565b60008181526002602052604090206007810154610100900460ff1661044e5760405162461bcd60e51b815260206004820152601460248201527311185e481b9bdd081c995cdbdb1d9959081e595d60621b60448201526064015b60405180910390fd5b600082815260036020908152604080832033845290915290208054610100900460ff166104ae5760405162461bcd60e51b815260206004820152600e60248201526d139bc81cdd185ad948199bdd5b9960921b6044820152606401610445565b805462010000900460ff16156104f85760405162461bcd60e51b815260206004820152600f60248201526e105b1c9958591e4818db185a5b5959608a1b6044820152606401610445565b6007820154815460ff9182169116600281111561051757610517610e5b565b60ff16146105565760405162461bcd60e51b815260206004820152600c60248201526b2737ba1030903bb4b73732b960a11b6044820152606401610445565b805462ff00001916620100001781556007820154600090600484019060ff166003811061058557610585610eb7565b01549050600081846000015461059b9190610ecd565b604051909150600090339083908381818185875af1925050503d80600081146105e0576040519150601f19603f3d011682016040523d82523d6000602084013e6105e5565b606091505b50509050806106285760405162461bcd60e51b815260206004820152600f60248201526e151c985b9cd9995c8819985a5b1959608a1b6044820152606401610445565b604051828152869033907f987d620f307ff6b94d58743cb7a7509f24071586a77759b77c2d4e29f75a2f9a9060200160405180910390a3505050505050565b6000546001600160a01b031633146106915760405162461bcd60e51b815260040161044590610eef565b600155565b60028160ff1611156106db5760405162461bcd60e51b815260206004820152600e60248201526d24b73b30b634b21037b83a34b7b760911b6044820152606401610445565b60015434146107215760405162461bcd60e51b815260206004820152601260248201527115dc9bdb99c81cdd185ad948185b5bdd5b9d60721b6044820152606401610445565b6004546000908152600260205260409020600781015462010000900460ff1661077b5760405162461bcd60e51b815260206004820152600c60248201526b2230bc903737ba1037b832b760a11b6044820152606401610445565b6007810154610100900460ff16156107cc5760405162461bcd60e51b815260206004820152601460248201527311185e48185b1c9958591e481c995cdbdb1d995960621b6044820152606401610445565b6004546000908152600360209081526040808320338452909152902054610100900460ff16156108355760405162461bcd60e51b8152602060048201526014602482015273416c7265616479207374616b656420746f64617960601b6044820152606401610445565b60405180606001604052808360ff16600281111561085557610855610e5b565b600281111561086657610866610e5b565b81526001602080830182905260006040938401819052600454815260038252838120338252909152919091208251815491929091839160ff19909116908360028111156108b5576108b5610e5b565b0217905550602082015181546040909301511515620100000262ff000019911515610100029190911662ffff001990931692909217919091179055805434908290600090610904908490610f12565b909155503490506001820160ff84166003811061092357610923610eb7565b0160008282546109339190610f12565b90915550600190506004820160ff84166003811061095357610953610eb7565b0160008282546109639190610f12565b9091555050600454337fbde7f0ba1630d25515c7ab99ba47d5640b7ffb4c673b2a5464ae67919558929860ff851660028111156109a2576109a2610e5b565b346040516109b1929190610f39565b60405180910390a35050565b6000546001600160a01b031633146109e75760405162461bcd60e51b815260040161044590610eef565b600080546001600160a01b0319166001600160a01b0392909216919091179055565b60008281526003602090815260408083206001600160a01b0385168452909152812080548291829160ff6101008204811691166002811115610a4d57610a4d610e5b565b9154909791965062010000900460ff16945092505050565b6000546001600160a01b03163314610a8f5760405162461bcd60e51b815260040161044590610eef565b60028160ff161115610ad45760405162461bcd60e51b815260206004820152600e60248201526d24b73b30b634b2103bb4b73732b960911b6044820152606401610445565b6004546000908152600260205260409020600781015462010000900460ff16610b2e5760405162461bcd60e51b815260206004820152600c60248201526b2230bc903737ba1037b832b760a11b6044820152606401610445565b6007810154610100900460ff1615610b7b5760405162461bcd60e51b815260206004820152601060248201526f105b1c9958591e481c995cdbdb1d995960821b6044820152606401610445565b60078101805461ffff191660ff841690811761010017909155600090600483019060038110610bac57610bac610eb7565b015490506004547ff708d5cf24bfd97b8d216250c0dd5061e1e623770ceb1a8b812a51eb932402d28460ff166002811115610be957610be9610e5b565b8454604051610bfb9291908690610f54565b60405180910390a2600160046000828254610c169190610f12565b909155505060048054600090815260026020526040808220600701805462ff0000191662010000179055915491517f3be0a3a204f5de4fb6c50e9eafa1a22b8939161f238c3919b3ba45887af1cf1d9190a2505050565b6000546001600160a01b03163314610c975760405162461bcd60e51b815260040161044590610eef565b600080546040516001600160a01b039091169083908381818185875af1925050503d8060008114610ce4576040519150601f19603f3d011682016040523d82523d6000602084013e610ce9565b606091505b5050905080610d2c5760405162461bcd60e51b815260206004820152600f60248201526e151c985b9cd9995c8819985a5b1959608a1b6044820152606401610445565b5050565b60405180606001604052806003906020820280368337509192915050565b600060208284031215610d6057600080fd5b5035919050565b8060005b6003811015610d8a578151845260209384019390910190600101610d6b565b50505050565b8581526101208101610da56020830187610d67565b610db26080830186610d67565b83151560e083015260ff83166101008301529695505050505050565b600060208284031215610de057600080fd5b813560ff81168114610df157600080fd5b9392505050565b80356001600160a01b0381168114610e0f57600080fd5b919050565b600060208284031215610e2657600080fd5b610df182610df8565b60008060408385031215610e4257600080fd5b82359150610e5260208401610df8565b90509250929050565b634e487b7160e01b600052602160045260246000fd5b60038110610e8f57634e487b7160e01b600052602160045260246000fd5b9052565b60608101610ea18286610e71565b9215156020820152901515604090910152919050565b634e487b7160e01b600052603260045260246000fd5b600082610eea57634e487b7160e01b600052601260045260246000fd5b500490565b6020808252600990820152682737ba1030b236b4b760b91b604082015260600190565b80820180821115610f3357634e487b7160e01b600052601160045260246000fd5b92915050565b60408101610f478285610e71565b8260208301529392505050565b60608101610f628286610e71565b60208201939093526040015291905056fea264697066735822122038759496eed0bc8eed43b3a9a722b0d78b00f6e16e720b916dd7f860cd8e21ec64736f6c63430008180033","opcodes":"PUSH1 0x80 PUSH1 0x40 MSTORE CALLVALUE DUP1 ISZERO PUSH2 0x10 JUMPI PUSH1 0x0 DUP1 REVERT JUMPDEST POP PUSH1 0x40 MLOAD PUSH2 0x1082 CODESIZE SUB DUP1 PUSH2 0x1082 DUP4 CODECOPY DUP2 ADD PUSH1 0x40 DUP2 SWAP1 MSTORE PUSH2 0x2F SWAP2 PUSH2 0xB1 JUMP JUMPDEST PUSH1 0x0 DUP1 SLOAD PUSH1 0x1 PUSH1 0x1 PUSH1 0xA0 SHL SUB NOT AND CALLER OR DUP2 SSTORE PUSH1 0x1 DUP3 DUP2 SSTORE PUSH1 0x4 DUP2 SWAP1 SSTORE DUP1 DUP3 MSTORE PUSH1 0x2 PUSH1 0x20 MSTORE PUSH32 0xE90B7BCEB6E7DF5418FB78D8EE546E97C83A08BBCCC01A0644D599CCD2A7C2E7 DUP1 SLOAD PUSH3 0xFF0000 NOT AND PUSH3 0x10000 OR SWAP1 SSTORE PUSH1 0x40 MLOAD SWAP1 SWAP2 PUSH32 0x3BE0A3A204F5DE4FB6C50E9EAFA1A22B8939161F238C3919B3BA45887AF1CF1D SWAP2 LOG2 POP PUSH2 0xCA JUMP JUMPDEST PUSH1 0x0 PUSH1 0x20 DUP3 DUP5 SUB SLT ISZERO PUSH2 0xC3 JUMPI PUSH1 0x0 DUP1 REVERT JUMPDEST POP MLOAD SWAP2 SWAP1 POP JUMP JUMPDEST PUSH2 0xFA9 DUP1 PUSH2 0xD9 PUSH1 0x0 CODECOPY PUSH1 0x0 RETURN INVALID PUSH1 0x80 PUSH1 0x40 MSTORE PUSH1 0x4 CALLDATASIZE LT PUSH2 0xC2 JUMPI PUSH1 0x0 CALLDATALOAD PUSH1 0xE0 SHR DUP1 PUSH4 0x704B6C02 GT PUSH2 0x7F JUMPI DUP1 PUSH4 0xA0270DBC GT PUSH2 0x59 JUMPI DUP1 PUSH4 0xA0270DBC EQ PUSH2 0x265 JUMPI DUP1 PUSH4 0xA9A3BBA4 EQ PUSH2 0x285 JUMPI DUP1 PUSH4 0xE6634C67 EQ PUSH2 0x2E2 JUMPI DUP1 PUSH4 0xF851A440 EQ PUSH2 0x302 JUMPI PUSH1 0x0 DUP1 REVERT JUMPDEST DUP1 PUSH4 0x704B6C02 EQ PUSH2 0x190 JUMPI DUP1 PUSH4 0x7BBB3B79 EQ PUSH2 0x1B0 JUMPI DUP1 PUSH4 0x9626A230 EQ PUSH2 0x224 JUMPI PUSH1 0x0 DUP1 REVERT JUMPDEST DUP1 PUSH4 0x15FF8DD9 EQ PUSH2 0xC7 JUMPI DUP1 PUSH4 0x379607F5 EQ PUSH2 0x101 JUMPI DUP1 PUSH4 0x43808C50 EQ PUSH2 0x123 JUMPI DUP1 PUSH4 0x5C9302C9 EQ PUSH2 0x143 JUMPI DUP1 PUSH4 0x604F2177 EQ PUSH2 0x167 JUMPI DUP1 PUSH4 0x60C7DC47 EQ PUSH2 0x17A JUMPI JUMPDEST PUSH1 0x0 DUP1 REVERT JUMPDEST CALLVALUE DUP1 ISZERO PUSH2 0xD3 JUMPI PUSH1 0x0 DUP1 REVERT JUMPDEST POP PUSH2 0xE7 PUSH2 0xE2 CALLDATASIZE PUSH1 0x4 PUSH2 0xD4E JUMP JUMPDEST PUSH2 0x33A JUMP JUMPDEST PUSH1 0x40 MLOAD PUSH2 0xF8 SWAP6 SWAP5 SWAP4 SWAP3 SWAP2 SWAP1 PUSH2 0xD90 JUMP JUMPDEST PUSH1 0x40 MLOAD DUP1 SWAP2 SUB SWAP1 RETURN JUMPDEST CALLVALUE DUP1 ISZERO PUSH2 0x10D JUMPI PUSH1 0x0 DUP1 REVERT JUMPDEST POP PUSH2 0x121 PUSH2 0x11C CALLDATASIZE PUSH1 0x4 PUSH2 0xD4E JUMP JUMPDEST PUSH2 0x3EB JUMP JUMPDEST STOP JUMPDEST CALLVALUE DUP1 ISZERO PUSH2 0x12F JUMPI PUSH1 0x0 DUP1 REVERT JUMPDEST POP PUSH2 0x121 PUSH2 0x13E CALLDATASIZE PUSH1 0x4 PUSH2 0xD4E JUMP JUMPDEST PUSH2 0x667 JUMP JUMPDEST CALLVALUE DUP1 ISZERO PUSH2 0x14F JUMPI PUSH1 0x0 DUP1 REVERT JUMPDEST POP PUSH2 0x159 PUSH1 0x4 SLOAD DUP2 JUMP JUMPDEST PUSH1 0x40 MLOAD SWAP1 DUP2 MSTORE PUSH1 0x20 ADD PUSH2 0xF8 JUMP JUMPDEST PUSH2 0x121 PUSH2 0x175 CALLDATASIZE PUSH1 0x4 PUSH2 0xDCE JUMP JUMPDEST PUSH2 0x696 JUMP JUMPDEST CALLVALUE DUP1 ISZERO PUSH2 0x186 JUMPI PUSH1 0x0 DUP1 REVERT JUMPDEST POP PUSH2 0x159 PUSH1 0x1 SLOAD DUP2 JUMP JUMPDEST CALLVALUE DUP1 ISZERO PUSH2 0x19C JUMPI PUSH1 0x0 DUP1 REVERT JUMPDEST POP PUSH2 0x121 PUSH2 0x1AB CALLDATASIZE PUSH1 0x4 PUSH2 0xE14 JUMP JUMPDEST PUSH2 0x9BD JUMP JUMPDEST CALLVALUE DUP1 ISZERO PUSH2 0x1BC JUMPI PUSH1 0x0 DUP1 REVERT JUMPDEST POP PUSH2 0x1FA PUSH2 0x1CB CALLDATASIZE PUSH1 0x4 PUSH2 0xD4E JUMP JUMPDEST PUSH1 0x2 PUSH1 0x20 MSTORE PUSH1 0x0 SWAP1 DUP2 MSTORE PUSH1 0x40 SWAP1 KECCAK256 DUP1 SLOAD PUSH1 0x7 SWAP1 SWAP2 ADD SLOAD PUSH1 0xFF DUP1 DUP3 AND SWAP2 PUSH2 0x100 DUP2 DIV DUP3 AND SWAP2 PUSH3 0x10000 SWAP1 SWAP2 DIV AND DUP5 JUMP JUMPDEST PUSH1 0x40 DUP1 MLOAD SWAP5 DUP6 MSTORE PUSH1 0xFF SWAP1 SWAP4 AND PUSH1 0x20 DUP6 ADD MSTORE SWAP1 ISZERO ISZERO SWAP2 DUP4 ADD SWAP2 SWAP1 SWAP2 MSTORE ISZERO ISZERO PUSH1 0x60 DUP3 ADD MSTORE PUSH1 0x80 ADD PUSH2 0xF8 JUMP JUMPDEST CALLVALUE DUP1 ISZERO PUSH2 0x230 JUMPI PUSH1 0x0 DUP1 REVERT JUMPDEST POP PUSH2 0x244 PUSH2 0x23F CALLDATASIZE PUSH1 0x4 PUSH2 0xE2F JUMP JUMPDEST PUSH2 0xA09 JUMP JUMPDEST PUSH1 0x40 DUP1 MLOAD SWAP4 ISZERO ISZERO DUP5 MSTORE PUSH1 0xFF SWAP1 SWAP3 AND PUSH1 0x20 DUP5 ADD MSTORE ISZERO ISZERO SWAP1 DUP3 ADD MSTORE PUSH1 0x60 ADD PUSH2 0xF8 JUMP JUMPDEST CALLVALUE DUP1 ISZERO PUSH2 0x271 JUMPI PUSH1 0x0 DUP1 REVERT JUMPDEST POP PUSH2 0x121 PUSH2 0x280 CALLDATASIZE PUSH1 0x4 PUSH2 0xDCE JUMP JUMPDEST PUSH2 0xA65 JUMP JUMPDEST CALLVALUE DUP1 ISZERO PUSH2 0x291 JUMPI PUSH1 0x0 DUP1 REVERT JUMPDEST POP PUSH2 0x2D3 PUSH2 0x2A0 CALLDATASIZE PUSH1 0x4 PUSH2 0xE2F JUMP JUMPDEST PUSH1 0x3 PUSH1 0x20 SWAP1 DUP2 MSTORE PUSH1 0x0 SWAP3 DUP4 MSTORE PUSH1 0x40 DUP1 DUP5 KECCAK256 SWAP1 SWAP2 MSTORE SWAP1 DUP3 MSTORE SWAP1 KECCAK256 SLOAD PUSH1 0xFF DUP1 DUP3 AND SWAP2 PUSH2 0x100 DUP2 DIV DUP3 AND SWAP2 PUSH3 0x10000 SWAP1 SWAP2 DIV AND DUP4 JUMP JUMPDEST PUSH1 0x40 MLOAD PUSH2 0xF8 SWAP4 SWAP3 SWAP2 SWAP1 PUSH2 0xE93 JUMP JUMPDEST CALLVALUE DUP1 ISZERO PUSH2 0x2EE JUMPI PUSH1 0x0 DUP1 REVERT JUMPDEST POP PUSH2 0x121 PUSH2 0x2FD CALLDATASIZE PUSH1 0x4 PUSH2 0xD4E JUMP JUMPDEST PUSH2 0xC6D JUMP JUMPDEST CALLVALUE DUP1 ISZERO PUSH2 0x30E JUMPI PUSH1 0x0 DUP1 REVERT JUMPDEST POP PUSH1 0x0 SLOAD PUSH2 0x322 SWAP1 PUSH1 0x1 PUSH1 0x1 PUSH1 0xA0 SHL SUB AND DUP2 JUMP JUMPDEST PUSH1 0x40 MLOAD PUSH1 0x1 PUSH1 0x1 PUSH1 0xA0 SHL SUB SWAP1 SWAP2 AND DUP2 MSTORE PUSH1 0x20 ADD PUSH2 0xF8 JUMP JUMPDEST PUSH1 0x0 PUSH2 0x344 PUSH2 0xD30 JUMP JUMPDEST PUSH2 0x34C PUSH2 0xD30 JUMP JUMPDEST PUSH1 0x0 DUP5 DUP2 MSTORE PUSH1 0x2 PUSH1 0x20 MSTORE PUSH1 0x40 DUP1 DUP3 KECCAK256 DUP1 SLOAD PUSH1 0x7 DUP3 ADD SLOAD DUP4 MLOAD PUSH1 0x60 DUP2 ADD SWAP5 DUP6 SWAP1 MSTORE DUP6 SWAP5 PUSH1 0x1 DUP6 ADD SWAP3 PUSH1 0x4 DUP7 ADD SWAP3 PUSH1 0xFF PUSH2 0x100 DUP4 DIV DUP2 AND SWAP4 SWAP3 AND SWAP2 DUP6 SWAP1 PUSH1 0x3 SWAP1 DUP3 DUP5 JUMPDEST DUP2 SLOAD DUP2 MSTORE PUSH1 0x20 ADD SWAP1 PUSH1 0x1 ADD SWAP1 DUP1 DUP4 GT PUSH2 0x38D JUMPI POP POP PUSH1 0x40 DUP1 MLOAD PUSH1 0x60 DUP2 ADD SWAP2 DUP3 SWAP1 MSTORE SWAP5 SWAP9 POP DUP8 SWAP4 POP PUSH1 0x3 SWAP3 POP SWAP1 POP DUP3 DUP5 JUMPDEST DUP2 SLOAD DUP2 MSTORE PUSH1 0x20 ADD SWAP1 PUSH1 0x1 ADD SWAP1 DUP1 DUP4 GT PUSH2 0x3BD JUMPI POP POP POP POP POP SWAP3 POP SWAP6 POP SWAP6 POP SWAP6 POP SWAP6 POP SWAP6 POP POP SWAP2 SWAP4 SWAP6 SWAP1 SWAP3 SWAP5 POP JUMP JUMPDEST PUSH1 0x0 DUP2 DUP2 MSTORE PUSH1 0x2 PUSH1 0x20 MSTORE PUSH1 0x40 SWAP1 KECCAK256 PUSH1 0x7 DUP2 ADD SLOAD PUSH2 0x100 SWAP1 DIV PUSH1 0xFF AND PUSH2 0x44E JUMPI PUSH1 0x40 MLOAD PUSH3 0x461BCD PUSH1 0xE5 SHL DUP2 MSTORE PUSH1 0x20 PUSH1 0x4 DUP3 ADD MSTORE PUSH1 0x14 PUSH1 0x24 DUP3 ADD MSTORE PUSH20 0x11185E481B9BDD081C995CDBDB1D9959081E595D PUSH1 0x62 SHL PUSH1 0x44 DUP3 ADD MSTORE PUSH1 0x64 ADD JUMPDEST PUSH1 0x40 MLOAD DUP1 SWAP2 SUB SWAP1 REVERT JUMPDEST PUSH1 0x0 DUP3 DUP2 MSTORE PUSH1 0x3 PUSH1 0x20 SWAP1 DUP2 MSTORE PUSH1 0x40 DUP1 DUP4 KECCAK256 CALLER DUP5 MSTORE SWAP1 SWAP2 MSTORE SWAP1 KECCAK256 DUP1 SLOAD PUSH2 0x100 SWAP1 DIV PUSH1 0xFF AND PUSH2 0x4AE JUMPI PUSH1 0x40 MLOAD PUSH3 0x461BCD PUSH1 0xE5 SHL DUP2 MSTORE PUSH1 0x20 PUSH1 0x4 DUP3 ADD MSTORE PUSH1 0xE PUSH1 0x24 DUP3 ADD MSTORE PUSH14 0x139BC81CDD185AD948199BDD5B99 PUSH1 0x92 SHL PUSH1 0x44 DUP3 ADD MSTORE PUSH1 0x64 ADD PUSH2 0x445 JUMP JUMPDEST DUP1 SLOAD PUSH3 0x10000 SWAP1 DIV PUSH1 0xFF AND ISZERO PUSH2 0x4F8 JUMPI PUSH1 0x40 MLOAD PUSH3 0x461BCD PUSH1 0xE5 SHL DUP2 MSTORE PUSH1 0x20 PUSH1 0x4 DUP3 ADD MSTORE PUSH1 0xF PUSH1 0x24 DUP3 ADD MSTORE PUSH15 0x105B1C9958591E4818DB185A5B5959 PUSH1 0x8A SHL PUSH1 0x44 DUP3 ADD MSTORE PUSH1 0x64 ADD PUSH2 0x445 JUMP JUMPDEST PUSH1 0x7 DUP3 ADD SLOAD DUP2 SLOAD PUSH1 0xFF SWAP2 DUP3 AND SWAP2 AND PUSH1 0x2 DUP2 GT ISZERO PUSH2 0x517 JUMPI PUSH2 0x517 PUSH2 0xE5B JUMP JUMPDEST PUSH1 0xFF AND EQ PUSH2 0x556 JUMPI PUSH1 0x40 MLOAD PUSH3 0x461BCD PUSH1 0xE5 SHL DUP2 MSTORE PUSH1 0x20 PUSH1 0x4 DUP3 ADD MSTORE PUSH1 0xC PUSH1 0x24 DUP3 ADD MSTORE PUSH12 0x2737BA1030903BB4B73732B9 PUSH1 0xA1 SHL PUSH1 0x44 DUP3 ADD MSTORE PUSH1 0x64 ADD PUSH2 0x445 JUMP JUMPDEST DUP1 SLOAD PUSH3 0xFF0000 NOT AND PUSH3 0x10000 OR DUP2 SSTORE PUSH1 0x7 DUP3 ADD SLOAD PUSH1 0x0 SWAP1 PUSH1 0x4 DUP5 ADD SWAP1 PUSH1 0xFF AND PUSH1 0x3 DUP2 LT PUSH2 0x585 JUMPI PUSH2 0x585 PUSH2 0xEB7 JUMP JUMPDEST ADD SLOAD SWAP1 POP PUSH1 0x0 DUP2 DUP5 PUSH1 0x0 ADD SLOAD PUSH2 0x59B SWAP2 SWAP1 PUSH2 0xECD JUMP JUMPDEST PUSH1 0x40 MLOAD SWAP1 SWAP2 POP PUSH1 0x0 SWAP1 CALLER SWAP1 DUP4 SWAP1 DUP4 DUP2 DUP2 DUP2 DUP6 DUP8 GAS CALL SWAP3 POP POP POP RETURNDATASIZE DUP1 PUSH1 0x0 DUP2 EQ PUSH2 0x5E0 JUMPI PUSH1 0x40 MLOAD SWAP2 POP PUSH1 0x1F NOT PUSH1 0x3F RETURNDATASIZE ADD AND DUP3 ADD PUSH1 0x40 MSTORE RETURNDATASIZE DUP3 MSTORE RETURNDATASIZE PUSH1 0x0 PUSH1 0x20 DUP5 ADD RETURNDATACOPY PUSH2 0x5E5 JUMP JUMPDEST PUSH1 0x60 SWAP2 POP JUMPDEST POP POP SWAP1 POP DUP1 PUSH2 0x628 JUMPI PUSH1 0x40 MLOAD PUSH3 0x461BCD PUSH1 0xE5 SHL DUP2 MSTORE PUSH1 0x20 PUSH1 0x4 DUP3 ADD MSTORE PUSH1 0xF PUSH1 0x24 DUP3 ADD MSTORE PUSH15 0x151C985B9CD9995C8819985A5B1959 PUSH1 0x8A SHL PUSH1 0x44 DUP3 ADD MSTORE PUSH1 0x64 ADD PUSH2 0x445 JUMP JUMPDEST PUSH1 0x40 MLOAD DUP3 DUP2 MSTORE DUP7 SWAP1 CALLER SWAP1 PUSH32 0x987D620F307FF6B94D58743CB7A7509F24071586A77759B77C2D4E29F75A2F9A SWAP1 PUSH1 0x20 ADD PUSH1 0x40 MLOAD DUP1 SWAP2 SUB SWAP1 LOG3 POP POP POP POP POP POP JUMP JUMPDEST PUSH1 0x0 SLOAD PUSH1 0x1 PUSH1 0x1 PUSH1 0xA0 SHL SUB AND CALLER EQ PUSH2 0x691 JUMPI PUSH1 0x40 MLOAD PUSH3 0x461BCD PUSH1 0xE5 SHL DUP2 MSTORE PUSH1 0x4 ADD PUSH2 0x445 SWAP1 PUSH2 0xEEF JUMP JUMPDEST PUSH1 0x1 SSTORE JUMP JUMPDEST PUSH1 0x2 DUP2 PUSH1 0xFF AND GT ISZERO PUSH2 0x6DB JUMPI PUSH1 0x40 MLOAD PUSH3 0x461BCD PUSH1 0xE5 SHL DUP2 MSTORE PUSH1 0x20 PUSH1 0x4 DUP3 ADD MSTORE PUSH1 0xE PUSH1 0x24 DUP3 ADD MSTORE PUSH14 0x24B73B30B634B21037B83A34B7B7 PUSH1 0x91 SHL PUSH1 0x44 DUP3 ADD MSTORE PUSH1 0x64 ADD PUSH2 0x445 JUMP JUMPDEST PUSH1 0x1 SLOAD CALLVALUE EQ PUSH2 0x721 JUMPI PUSH1 0x40 MLOAD PUSH3 0x461BCD PUSH1 0xE5 SHL DUP2 MSTORE PUSH1 0x20 PUSH1 0x4 DUP3 ADD MSTORE PUSH1 0x12 PUSH1 0x24 DUP3 ADD MSTORE PUSH18 0x15DC9BDB99C81CDD185AD948185B5BDD5B9D PUSH1 0x72 SHL PUSH1 0x44 DUP3 ADD MSTORE PUSH1 0x64 ADD PUSH2 0x445 JUMP JUMPDEST PUSH1 0x4 SLOAD PUSH1 0x0 SWAP1 DUP2 MSTORE PUSH1 0x2 PUSH1 0x20 MSTORE PUSH1 0x40 SWAP1 KECCAK256 PUSH1 0x7 DUP2 ADD SLOAD PUSH3 0x10000 SWAP1 DIV PUSH1 0xFF AND PUSH2 0x77B JUMPI PUSH1 0x40 MLOAD PUSH3 0x461BCD PUSH1 0xE5 SHL DUP2 MSTORE PUSH1 0x20 PUSH1 0x4 DUP3 ADD MSTORE PUSH1 0xC PUSH1 0x24 DUP3 ADD MSTORE PUSH12 0x2230BC903737BA1037B832B7 PUSH1 0xA1 SHL PUSH1 0x44 DUP3 ADD MSTORE PUSH1 0x64 ADD PUSH2 0x445 JUMP JUMPDEST PUSH1 0x7 DUP2 ADD SLOAD PUSH2 0x100 SWAP1 DIV PUSH1 0xFF AND ISZERO PUSH2 0x7CC JUMPI PUSH1 0x40 MLOAD PUSH3 0x461BCD PUSH1 0xE5 SHL DUP2 MSTORE PUSH1 0x20 PUSH1 0x4 DUP3 ADD MSTORE PUSH1 0x14 PUSH1 0x24 DUP3 ADD MSTORE PUSH20 0x11185E48185B1C9958591E481C995CDBDB1D9959 PUSH1 0x62 SHL PUSH1 0x44 DUP3 ADD MSTORE PUSH1 0x64 ADD PUSH2 0x445 JUMP JUMPDEST PUSH1 0x4 SLOAD PUSH1 0x0 SWAP1 DUP2 MSTORE PUSH1 0x3 PUSH1 0x20 SWAP1 DUP2 MSTORE PUSH1 0x40 DUP1 DUP4 KECCAK256 CALLER DUP5 MSTORE SWAP1 SWAP2 MSTORE SWAP1 KECCAK256 SLOAD PUSH2 0x100 SWAP1 DIV PUSH1 0xFF AND ISZERO PUSH2 0x835 JUMPI PUSH1 0x40 MLOAD PUSH3 0x461BCD PUSH1 0xE5 SHL DUP2 MSTORE PUSH1 0x20 PUSH1 0x4 DUP3 ADD MSTORE PUSH1 0x14 PUSH1 0x24 DUP3 ADD MSTORE PUSH20 0x416C7265616479207374616B656420746F646179 PUSH1 0x60 SHL PUSH1 0x44 DUP3 ADD MSTORE PUSH1 0x64 ADD PUSH2 0x445 JUMP JUMPDEST PUSH1 0x40 MLOAD DUP1 PUSH1 0x60 ADD PUSH1 0x40 MSTORE DUP1 DUP4 PUSH1 0xFF AND PUSH1 0x2 DUP2 GT ISZERO PUSH2 0x855 JUMPI PUSH2 0x855 PUSH2 0xE5B JUMP JUMPDEST PUSH1 0x2 DUP2 GT ISZERO PUSH2 0x866 JUMPI PUSH2 0x866 PUSH2 0xE5B JUMP JUMPDEST DUP2 MSTORE PUSH1 0x1 PUSH1 0x20 DUP1 DUP4 ADD DUP3 SWAP1 MSTORE PUSH1 0x0 PUSH1 0x40 SWAP4 DUP5 ADD DUP2 SWAP1 MSTORE PUSH1 0x4 SLOAD DUP2 MSTORE PUSH1 0x3 DUP3 MSTORE DUP4 DUP2 KECCAK256 CALLER DUP3 MSTORE SWAP1 SWAP2 MSTORE SWAP2 SWAP1 SWAP2 KECCAK256 DUP3 MLOAD DUP2 SLOAD SWAP2 SWAP3 SWAP1 SWAP2 DUP4 SWAP2 PUSH1 0xFF NOT SWAP1 SWAP2 AND SWAP1 DUP4 PUSH1 0x2 DUP2 GT ISZERO PUSH2 0x8B5 JUMPI PUSH2 0x8B5 PUSH2 0xE5B JUMP JUMPDEST MUL OR SWAP1 SSTORE POP PUSH1 0x20 DUP3 ADD MLOAD DUP2 SLOAD PUSH1 0x40 SWAP1 SWAP4 ADD MLOAD ISZERO ISZERO PUSH3 0x10000 MUL PUSH3 0xFF0000 NOT SWAP2 ISZERO ISZERO PUSH2 0x100 MUL SWAP2 SWAP1 SWAP2 AND PUSH3 0xFFFF00 NOT SWAP1 SWAP4 AND SWAP3 SWAP1 SWAP3 OR SWAP2 SWAP1 SWAP2 OR SWAP1 SSTORE DUP1 SLOAD CALLVALUE SWAP1 DUP3 SWAP1 PUSH1 0x0 SWAP1 PUSH2 0x904 SWAP1 DUP5 SWAP1 PUSH2 0xF12 JUMP JUMPDEST SWAP1 SWAP2 SSTORE POP CALLVALUE SWAP1 POP PUSH1 0x1 DUP3 ADD PUSH1 0xFF DUP5 AND PUSH1 0x3 DUP2 LT PUSH2 0x923 JUMPI PUSH2 0x923 PUSH2 0xEB7 JUMP JUMPDEST ADD PUSH1 0x0 DUP3 DUP3 SLOAD PUSH2 0x933 SWAP2 SWAP1 PUSH2 0xF12 JUMP JUMPDEST SWAP1 SWAP2 SSTORE POP PUSH1 0x1 SWAP1 POP PUSH1 0x4 DUP3 ADD PUSH1 0xFF DUP5 AND PUSH1 0x3 DUP2 LT PUSH2 0x953 JUMPI PUSH2 0x953 PUSH2 0xEB7 JUMP JUMPDEST ADD PUSH1 0x0 DUP3 DUP3 SLOAD PUSH2 0x963 SWAP2 SWAP1 PUSH2 0xF12 JUMP JUMPDEST SWAP1 SWAP2 SSTORE POP POP PUSH1 0x4 SLOAD CALLER PUSH32 0xBDE7F0BA1630D25515C7AB99BA47D5640B7FFB4C673B2A5464AE679195589298 PUSH1 0xFF DUP6 AND PUSH1 0x2 DUP2 GT ISZERO PUSH2 0x9A2 JUMPI PUSH2 0x9A2 PUSH2 0xE5B JUMP JUMPDEST CALLVALUE PUSH1 0x40 MLOAD PUSH2 0x9B1 SWAP3 SWAP2 SWAP1 PUSH2 0xF39 JUMP JUMPDEST PUSH1 0x40 MLOAD DUP1 SWAP2 SUB SWAP1 LOG3 POP POP JUMP JUMPDEST PUSH1 0x0 SLOAD PUSH1 0x1 PUSH1 0x1 PUSH1 0xA0 SHL SUB AND CALLER EQ PUSH2 0x9E7 JUMPI PUSH1 0x40 MLOAD PUSH3 0x461BCD PUSH1 0xE5 SHL DUP2 MSTORE PUSH1 0x4 ADD PUSH2 0x445 SWAP1 PUSH2 0xEEF JUMP JUMPDEST PUSH1 0x0 DUP1 SLOAD PUSH1 0x1 PUSH1 0x1 PUSH1 0xA0 SHL SUB NOT AND PUSH1 0x1 PUSH1 0x1 PUSH1 0xA0 SHL SUB SWAP3 SWAP1 SWAP3 AND SWAP2 SWAP1 SWAP2 OR SWAP1 SSTORE JUMP JUMPDEST PUSH1 0x0 DUP3 DUP2 MSTORE PUSH1 0x3 PUSH1 0x20 SWAP1 DUP2 MSTORE PUSH1 0x40 DUP1 DUP4 KECCAK256 PUSH1 0x1 PUSH1 0x1 PUSH1 0xA0 SHL SUB DUP6 AND DUP5 MSTORE SWAP1 SWAP2 MSTORE DUP2 KECCAK256 DUP1 SLOAD DUP3 SWAP2 DUP3 SWAP2 PUSH1 0xFF PUSH2 0x100 DUP3 DIV DUP2 AND SWAP2 AND PUSH1 0x2 DUP2 GT ISZERO PUSH2 0xA4D JUMPI PUSH2 0xA4D PUSH2 0xE5B JUMP JUMPDEST SWAP2 SLOAD SWAP1 SWAP8 SWAP2 SWAP7 POP PUSH3 0x10000 SWAP1 DIV PUSH1 0xFF AND SWAP5 POP SWAP3 POP POP POP JUMP JUMPDEST PUSH1 0x0 SLOAD PUSH1 0x1 PUSH1 0x1 PUSH1 0xA0 SHL SUB AND CALLER EQ PUSH2 0xA8F JUMPI PUSH1 0x40 MLOAD PUSH3 0x461BCD PUSH1 0xE5 SHL DUP2 MSTORE PUSH1 0x4 ADD PUSH2 0x445 SWAP1 PUSH2 0xEEF JUMP JUMPDEST PUSH1 0x2 DUP2 PUSH1 0xFF AND GT ISZERO PUSH2 0xAD4 JUMPI PUSH1 0x40 MLOAD PUSH3 0x461BCD PUSH1 0xE5 SHL DUP2 MSTORE PUSH1 0x20 PUSH1 0x4 DUP3 ADD MSTORE PUSH1 0xE PUSH1 0x24 DUP3 ADD MSTORE PUSH14 0x24B73B30B634B2103BB4B73732B9 PUSH1 0x91 SHL PUSH1 0x44 DUP3 ADD MSTORE PUSH1 0x64 ADD PUSH2 0x445 JUMP JUMPDEST PUSH1 0x4 SLOAD PUSH1 0x0 SWAP1 DUP2 MSTORE PUSH1 0x2 PUSH1 0x20 MSTORE PUSH1 0x40 SWAP1 KECCAK256 PUSH1 0x7 DUP2 ADD SLOAD PUSH3 0x10000 SWAP1 DIV PUSH1 0xFF AND PUSH2 0xB2E JUMPI PUSH1 0x40 MLOAD PUSH3 0x461BCD PUSH1 0xE5 SHL DUP2 MSTORE PUSH1 0x20 PUSH1 0x4 DUP3 ADD MSTORE PUSH1 0xC PUSH1 0x24 DUP3 ADD MSTORE PUSH12 0x2230BC903737BA1037B832B7 PUSH1 0xA1 SHL PUSH1 0x44 DUP3 ADD MSTORE PUSH1 0x64 ADD PUSH2 0x445 JUMP JUMPDEST PUSH1 0x7 DUP2 ADD SLOAD PUSH2 0x100 SWAP1 DIV PUSH1 0xFF AND ISZERO PUSH2 0xB7B JUMPI PUSH1 0x40 MLOAD PUSH3 0x461BCD PUSH1 0xE5 SHL DUP2 MSTORE PUSH1 0x20 PUSH1 0x4 DUP3 ADD MSTORE PUSH1 0x10 PUSH1 0x24 DUP3 ADD MSTORE PUSH16 0x105B1C9958591E481C995CDBDB1D9959 PUSH1 0x82 SHL PUSH1 0x44 DUP3 ADD MSTORE PUSH1 0x64 ADD PUSH2 0x445 JUMP JUMPDEST PUSH1 0x7 DUP2 ADD DUP1 SLOAD PUSH2 0xFFFF NOT AND PUSH1 0xFF DUP5 AND SWAP1 DUP2 OR PUSH2 0x100 OR SWAP1 SWAP2 SSTORE PUSH1 0x0 SWAP1 PUSH1 0x4 DUP4 ADD SWAP1 PUSH1 0x3 DUP2 LT PUSH2 0xBAC JUMPI PUSH2 0xBAC PUSH2 0xEB7 JUMP JUMPDEST ADD SLOAD SWAP1 POP PUSH1 0x4 SLOAD PUSH32 0xF708D5CF24BFD97B8D216250C0DD5061E1E623770CEB1A8B812A51EB932402D2 DUP5 PUSH1 0xFF AND PUSH1 0x2 DUP2 GT ISZERO PUSH2 0xBE9 JUMPI PUSH2 0xBE9 PUSH2 0xE5B JUMP JUMPDEST DUP5 SLOAD PUSH1 0x40 MLOAD PUSH2 0xBFB SWAP3 SWAP2 SWAP1 DUP7 SWAP1 PUSH2 0xF54 JUMP JUMPDEST PUSH1 0x40 MLOAD DUP1 SWAP2 SUB SWAP1 LOG2 PUSH1 0x1 PUSH1 0x4 PUSH1 0x0 DUP3 DUP3 SLOAD PUSH2 0xC16 SWAP2 SWAP1 PUSH2 0xF12 JUMP JUMPDEST SWAP1 SWAP2 SSTORE POP POP PUSH1 0x4 DUP1 SLOAD PUSH1 0x0 SWAP1 DUP2 MSTORE PUSH1 0x2 PUSH1 0x20 MSTORE PUSH1 0x40 DUP1 DUP3 KECCAK256 PUSH1 0x7 ADD DUP1 SLOAD PUSH3 0xFF0000 NOT AND PUSH3 0x10000 OR SWAP1 SSTORE SWAP2 SLOAD SWAP2 MLOAD PUSH32 0x3BE0A3A204F5DE4FB6C50E9EAFA1A22B8939161F238C3919B3BA45887AF1CF1D SWAP2 SWAP1 LOG2 POP POP POP JUMP JUMPDEST PUSH1 0x0 SLOAD PUSH1 0x1 PUSH1 0x1 PUSH1 0xA0 SHL SUB AND CALLER EQ PUSH2 0xC97 JUMPI PUSH1 0x40 MLOAD PUSH3 0x461BCD PUSH1 0xE5 SHL DUP2 MSTORE PUSH1 0x4 ADD PUSH2 0x445 SWAP1 PUSH2 0xEEF JUMP JUMPDEST PUSH1 0x0 DUP1 SLOAD PUSH1 0x40 MLOAD PUSH1 0x1 PUSH1 0x1 PUSH1 0xA0 SHL SUB SWAP1 SWAP2 AND SWAP1 DUP4 SWAP1 DUP4 DUP2 DUP2 DUP2 DUP6 DUP8 GAS CALL SWAP3 POP POP POP RETURNDATASIZE DUP1 PUSH1 0x0 DUP2 EQ PUSH2 0xCE4 JUMPI PUSH1 0x40 MLOAD SWAP2 POP PUSH1 0x1F NOT PUSH1 0x3F RETURNDATASIZE ADD AND DUP3 ADD PUSH1 0x40 MSTORE RETURNDATASIZE DUP3 MSTORE RETURNDATASIZE PUSH1 0x0 PUSH1 0x20 DUP5 ADD RETURNDATACOPY PUSH2 0xCE9 JUMP JUMPDEST PUSH1 0x60 SWAP2 POP JUMPDEST POP POP SWAP1 POP DUP1 PUSH2 0xD2C JUMPI PUSH1 0x40 MLOAD PUSH3 0x461BCD PUSH1 0xE5 SHL DUP2 MSTORE PUSH1 0x20 PUSH1 0x4 DUP3 ADD MSTORE PUSH1 0xF PUSH1 0x24 DUP3 ADD MSTORE PUSH15 0x151C985B9CD9995C8819985A5B1959 PUSH1 0x8A SHL PUSH1 0x44 DUP3 ADD MSTORE PUSH1 0x64 ADD PUSH2 0x445 JUMP JUMPDEST POP POP JUMP JUMPDEST PUSH1 0x40 MLOAD DUP1 PUSH1 0x60 ADD PUSH1 0x40 MSTORE DUP1 PUSH1 0x3 SWAP1 PUSH1 0x20 DUP3 MUL DUP1 CALLDATASIZE DUP4 CALLDATACOPY POP SWAP2 SWAP3 SWAP2 POP POP JUMP JUMPDEST PUSH1 0x0 PUSH1 0x20 DUP3 DUP5 SUB SLT ISZERO PUSH2 0xD60 JUMPI PUSH1 0x0 DUP1 REVERT JUMPDEST POP CALLDATALOAD SWAP2 SWAP1 POP JUMP JUMPDEST DUP1 PUSH1 0x0 JUMPDEST PUSH1 0x3 DUP2 LT ISZERO PUSH2 0xD8A JUMPI DUP2 MLOAD DUP5 MSTORE PUSH1 0x20 SWAP4 DUP5 ADD SWAP4 SWAP1 SWAP2 ADD SWAP1 PUSH1 0x1 ADD PUSH2 0xD6B JUMP JUMPDEST POP POP POP POP JUMP JUMPDEST DUP6 DUP2 MSTORE PUSH2 0x120 DUP2 ADD PUSH2 0xDA5 PUSH1 0x20 DUP4 ADD DUP8 PUSH2 0xD67 JUMP JUMPDEST PUSH2 0xDB2 PUSH1 0x80 DUP4 ADD DUP7 PUSH2 0xD67 JUMP JUMPDEST DUP4 ISZERO ISZERO PUSH1 0xE0 DUP4 ADD MSTORE PUSH1 0xFF DUP4 AND PUSH2 0x100 DUP4 ADD MSTORE SWAP7 SWAP6 POP POP POP POP POP POP JUMP JUMPDEST PUSH1 0x0 PUSH1 0x20 DUP3 DUP5 SUB SLT ISZERO PUSH2 0xDE0 JUMPI PUSH1 0x0 DUP1 REVERT JUMPDEST DUP2 CALLDATALOAD PUSH1 0xFF DUP2 AND DUP2 EQ PUSH2 0xDF1 JUMPI PUSH1 0x0 DUP1 REVERT JUMPDEST SWAP4 SWAP3 POP POP POP JUMP JUMPDEST DUP1 CALLDATALOAD PUSH1 0x1 PUSH1 0x1 PUSH1 0xA0 SHL SUB DUP2 AND DUP2 EQ PUSH2 0xE0F JUMPI PUSH1 0x0 DUP1 REVERT JUMPDEST SWAP2 SWAP1 POP JUMP JUMPDEST PUSH1 0x0 PUSH1 0x20 DUP3 DUP5 SUB SLT ISZERO PUSH2 0xE26 JUMPI PUSH1 0x0 DUP1 REVERT JUMPDEST PUSH2 0xDF1 DUP3 PUSH2 0xDF8 JUMP JUMPDEST PUSH1 0x0 DUP1 PUSH1 0x40 DUP4 DUP6 SUB SLT ISZERO PUSH2 0xE42 JUMPI PUSH1 0x0 DUP1 REVERT JUMPDEST DUP3 CALLDATALOAD SWAP2 POP PUSH2 0xE52 PUSH1 0x20 DUP5 ADD PUSH2 0xDF8 JUMP JUMPDEST SWAP1 POP SWAP3 POP SWAP3 SWAP1 POP JUMP JUMPDEST PUSH4 0x4E487B71 PUSH1 0xE0 SHL PUSH1 0x0 MSTORE PUSH1 0x21 PUSH1 0x4 MSTORE PUSH1 0x24 PUSH1 0x0 REVERT JUMPDEST PUSH1 0x3 DUP2 LT PUSH2 0xE8F JUMPI PUSH4 0x4E487B71 PUSH1 0xE0 SHL PUSH1 0x0 MSTORE PUSH1 0x21 PUSH1 0x4 MSTORE PUSH1 0x24 PUSH1 0x0 REVERT JUMPDEST SWAP1 MSTORE JUMP JUMPDEST PUSH1 0x60 DUP2 ADD PUSH2 0xEA1 DUP3 DUP7 PUSH2 0xE71 JUMP JUMPDEST SWAP3 ISZERO ISZERO PUSH1 0x20 DUP3 ADD MSTORE SWAP1 ISZERO ISZERO PUSH1 0x40 SWAP1 SWAP2 ADD MSTORE SWAP2 SWAP1 POP JUMP JUMPDEST PUSH4 0x4E487B71 PUSH1 0xE0 SHL PUSH1 0x0 MSTORE PUSH1 0x32 PUSH1 0x4 MSTORE PUSH1 0x24 PUSH1 0x0 REVERT JUMPDEST PUSH1 0x0 DUP3 PUSH2 0xEEA JUMPI PUSH4 0x4E487B71 PUSH1 0xE0 SHL PUSH1 0x0 MSTORE PUSH1 0x12 PUSH1 0x4 MSTORE PUSH1 0x24 PUSH1 0x0 REVERT JUMPDEST POP DIV SWAP1 JUMP JUMPDEST PUSH1 0x20 DUP1 DUP3 MSTORE PUSH1 0x9 SWAP1 DUP3 ADD MSTORE PUSH9 0x2737BA1030B236B4B7 PUSH1 0xB9 SHL PUSH1 0x40 DUP3 ADD MSTORE PUSH1 0x60 ADD SWAP1 JUMP JUMPDEST DUP1 DUP3 ADD DUP1 DUP3 GT ISZERO PUSH2 0xF33 JUMPI PUSH4 0x4E487B71 PUSH1 0xE0 SHL PUSH1 0x0 MSTORE PUSH1 0x11 PUSH1 0x4 MSTORE PUSH1 0x24 PUSH1 0x0 REVERT JUMPDEST SWAP3 SWAP2 POP POP JUMP JUMPDEST PUSH1 0x40 DUP2 ADD PUSH2 0xF47 DUP3 DUP6 PUSH2 0xE71 JUMP JUMPDEST DUP3 PUSH1 0x20 DUP4 ADD MSTORE SWAP4 SWAP3 POP POP POP JUMP JUMPDEST PUSH1 0x60 DUP2 ADD PUSH2 0xF62 DUP3 DUP7 PUSH2 0xE71 JUMP JUMPDEST PUSH1 0x20 DUP3 ADD SWAP4 SWAP1 SWAP4 MSTORE PUSH1 0x40 ADD MSTORE SWAP2 SWAP1 POP JUMP INVALID LOG2 PUSH5 0x6970667358 0x22 SLT KECCAK256 CODESIZE PUSH22 0x9496EED0BC8EED43B3A9A722B0D78B00F6E16E720B91 PUSH14 0xD7F860CD8E21EC64736F6C634300 ADDMOD XOR STOP CALLER "},"methodIdentifiers":{"admin()":"f851a440","claim(uint256)":"379607f5","currentDay()":"5c9302c9","days_(uint256)":"7bbb3b79","getDayInfo(uint256)":"15ff8dd9","getUserStake(uint256,address)":"9626a230","resolve(uint8)":"a0270dbc","setAdmin(address)":"704b6c02","setStakeAmount(uint256)":"43808c50","stake(uint8)":"604f2177","stakeAmount()":"60c7dc47","stakes(uint256,address)":"a9a3bba4","withdrawUnclaimed(uint256)":"e6634c67"}}}}}