{
  "_format": "hh-sol-artifact-1",
  "contractName": "FateFiPool",
  "sourceName": "contracts/FateFiPool.sol",
  "abi": [
    {
      "inputs": [
        {
          "internalType": "uint256",
          "name": "_stakeAmount",
          "type": "uint256"
        }
      ],
      "stateMutability": "nonpayable",
      "type": "constructor"
    },
    {
      "anonymous": false,
      "inputs": [
        {
          "indexed": true,
          "internalType": "address",
          "name": "user",
          "type": "address"
        },
        {
          "indexed": true,
          "internalType": "uint256",
          "name": "dayId",
          "type": "uint256"
        },
        {
          "indexed": false,
          "internalType": "uint256",
          "name": "payout",
          "type": "uint256"
        }
      ],
      "name": "Claimed",
      "type": "event"
    },
    {
      "anonymous": false,
      "inputs": [
        {
          "indexed": true,
          "internalType": "uint256",
          "name": "dayId",
          "type": "uint256"
        },
        {
          "indexed": false,
          "internalType": "enum FateFiPool.Option",
          "name": "winner",
          "type": "uint8"
        },
        {
          "indexed": false,
          "internalType": "uint256",
          "name": "totalPool",
          "type": "uint256"
        },
        {
          "indexed": false,
          "internalType": "uint256",
          "name": "winnerCount",
          "type": "uint256"
        }
      ],
      "name": "DayResolved",
      "type": "event"
    },
    {
      "anonymous": false,
      "inputs": [
        {
          "indexed": true,
          "internalType": "uint256",
          "name": "dayId",
          "type": "uint256"
        }
      ],
      "name": "NewDay",
      "type": "event"
    },
    {
      "anonymous": false,
      "inputs": [
        {
          "indexed": true,
          "internalType": "address",
          "name": "user",
          "type": "address"
        },
        {
          "indexed": true,
          "internalType": "uint256",
          "name": "dayId",
          "type": "uint256"
        },
        {
          "indexed": false,
          "internalType": "enum FateFiPool.Option",
          "name": "option",
          "type": "uint8"
        },
        {
          "indexed": false,
          "internalType": "uint256",
          "name": "amount",
          "type": "uint256"
        }
      ],
      "name": "Staked",
      "type": "event"
    },
    {
      "inputs": [],
      "name": "admin",
      "outputs": [
        {
          "internalType": "address",
          "name": "",
          "type": "address"
        }
      ],
      "stateMutability": "view",
      "type": "function"
    },
    {
      "inputs": [
        {
          "internalType": "uint256",
          "name": "dayId",
          "type": "uint256"
        }
      ],
      "name": "claim",
      "outputs": [],
      "stateMutability": "nonpayable",
      "type": "function"
    },
    {
      "inputs": [],
      "name": "currentDay",
      "outputs": [
        {
          "internalType": "uint256",
          "name": "",
          "type": "uint256"
        }
      ],
      "stateMutability": "view",
      "type": "function"
    },
    {
      "inputs": [
        {
          "internalType": "uint256",
          "name": "",
          "type": "uint256"
        }
      ],
      "name": "days_",
      "outputs": [
        {
          "internalType": "uint256",
          "name": "totalStaked",
          "type": "uint256"
        },
        {
          "internalType": "uint8",
          "name": "winningOption",
          "type": "uint8"
        },
        {
          "internalType": "bool",
          "name": "resolved",
          "type": "bool"
        },
        {
          "internalType": "bool",
          "name": "exists",
          "type": "bool"
        }
      ],
      "stateMutability": "view",
      "type": "function"
    },
    {
      "inputs": [
        {
          "internalType": "uint256",
          "name": "dayId",
          "type": "uint256"
        }
      ],
      "name": "getDayInfo",
      "outputs": [
        {
          "internalType": "uint256",
          "name": "totalStaked",
          "type": "uint256"
        },
        {
          "internalType": "uint256[3]",
          "name": "optionTotals",
          "type": "uint256[3]"
        },
        {
          "internalType": "uint256[3]",
          "name": "optionCounts",
          "type": "uint256[3]"
        },
        {
          "internalType": "bool",
          "name": "resolved",
          "type": "bool"
        },
        {
          "internalType": "uint8",
          "name": "winningOption",
          "type": "uint8"
        }
      ],
      "stateMutability": "view",
      "type": "function"
    },
    {
      "inputs": [
        {
          "internalType": "uint256",
          "name": "dayId",
          "type": "uint256"
        },
        {
          "internalType": "address",
          "name": "user",
          "type": "address"
        }
      ],
      "name": "getUserStake",
      "outputs": [
        {
          "internalType": "bool",
          "name": "exists",
          "type": "bool"
        },
        {
          "internalType": "uint8",
          "name": "option",
          "type": "uint8"
        },
        {
          "internalType": "bool",
          "name": "claimed",
          "type": "bool"
        }
      ],
      "stateMutability": "view",
      "type": "function"
    },
    {
      "inputs": [
        {
          "internalType": "uint8",
          "name": "winner",
          "type": "uint8"
        }
      ],
      "name": "resolve",
      "outputs": [],
      "stateMutability": "nonpayable",
      "type": "function"
    },
    {
      "inputs": [
        {
          "internalType": "address",
          "name": "newAdmin",
          "type": "address"
        }
      ],
      "name": "setAdmin",
      "outputs": [],
      "stateMutability": "nonpayable",
      "type": "function"
    },
    {
      "inputs": [
        {
          "internalType": "uint256",
          "name": "_stakeAmount",
          "type": "uint256"
        }
      ],
      "name": "setStakeAmount",
      "outputs": [],
      "stateMutability": "nonpayable",
      "type": "function"
    },
    {
      "inputs": [
        {
          "internalType": "uint8",
          "name": "option",
          "type": "uint8"
        }
      ],
      "name": "stake",
      "outputs": [],
      "stateMutability": "payable",
      "type": "function"
    },
    {
      "inputs": [],
      "name": "stakeAmount",
      "outputs": [
        {
          "internalType": "uint256",
          "name": "",
          "type": "uint256"
        }
      ],
      "stateMutability": "view",
      "type": "function"
    },
    {
      "inputs": [
        {
          "internalType": "uint256",
          "name": "",
          "type": "uint256"
        },
        {
          "internalType": "address",
          "name": "",
          "type": "address"
        }
      ],
      "name": "stakes",
      "outputs": [
        {
          "internalType": "enum FateFiPool.Option",
          "name": "option",
          "type": "uint8"
        },
        {
          "internalType": "bool",
          "name": "exists",
          "type": "bool"
        },
        {
          "internalType": "bool",
          "name": "claimed",
          "type": "bool"
        }
      ],
      "stateMutability": "view",
      "type": "function"
    },
    {
      "inputs": [
        {
          "internalType": "uint256",
          "name": "amount",
          "type": "uint256"
        }
      ],
      "name": "withdrawUnclaimed",
      "outputs": [],
      "stateMutability": "nonpayable",
      "type": "function"
    }
  ],
  "bytecode": "0x608060405234801561001057600080fd5b5060405161108238038061108283398101604081905261002f916100b1565b600080546001600160a01b031916331781556001828155600481905580825260026020527fe90b7bceb6e7df5418fb78d8ee546e97c83a08bbccc01a0644d599ccd2a7c2e7805462ff000019166201000017905560405190917f3be0a3a204f5de4fb6c50e9eafa1a22b8939161f238c3919b3ba45887af1cf1d91a2506100ca565b6000602082840312156100c357600080fd5b5051919050565b610fa9806100d96000396000f3fe6080604052600436106100c25760003560e01c8063704b6c021161007f578063a0270dbc11610059578063a0270dbc14610265578063a9a3bba414610285578063e6634c67146102e2578063f851a4401461030257600080fd5b8063704b6c02146101905780637bbb3b79146101b05780639626a2301461022457600080fd5b806315ff8dd9146100c7578063379607f51461010157806343808c50146101235780635c9302c914610143578063604f21771461016757806360c7dc471461017a575b600080fd5b3480156100d357600080fd5b506100e76100e2366004610d4e565b61033a565b6040516100f8959493929190610d90565b60405180910390f35b34801561010d57600080fd5b5061012161011c366004610d4e565b6103eb565b005b34801561012f57600080fd5b5061012161013e366004610d4e565b610667565b34801561014f57600080fd5b5061015960045481565b6040519081526020016100f8565b610121610175366004610dce565b610696565b34801561018657600080fd5b5061015960015481565b34801561019c57600080fd5b506101216101ab366004610e14565b6109bd565b3480156101bc57600080fd5b506101fa6101cb366004610d4e565b6002602052600090815260409020805460079091015460ff808216916101008104821691620100009091041684565b6040805194855260ff909316602085015290151591830191909152151560608201526080016100f8565b34801561023057600080fd5b5061024461023f366004610e2f565b610a09565b60408051931515845260ff90921660208401521515908201526060016100f8565b34801561027157600080fd5b50610121610280366004610dce565b610a65565b34801561029157600080fd5b506102d36102a0366004610e2f565b600360209081526000928352604080842090915290825290205460ff808216916101008104821691620100009091041683565b6040516100f893929190610e93565b3480156102ee57600080fd5b506101216102fd366004610d4e565b610c6d565b34801561030e57600080fd5b50600054610322906001600160a01b031681565b6040516001600160a01b0390911681526020016100f8565b6000610344610d30565b61034c610d30565b600084815260026020526040808220805460078201548351606081019485905285946001850192600486019260ff6101008304811693921691859060039082845b81548152602001906001019080831161038d57505060408051606081019182905294985087935060039250905082845b8154815260200190600101908083116103bd5750505050509250955095509550955095505091939590929450565b60008181526002602052604090206007810154610100900460ff1661044e5760405162461bcd60e51b815260206004820152601460248201527311185e481b9bdd081c995cdbdb1d9959081e595d60621b60448201526064015b60405180910390fd5b600082815260036020908152604080832033845290915290208054610100900460ff166104ae5760405162461bcd60e51b815260206004820152600e60248201526d139bc81cdd185ad948199bdd5b9960921b6044820152606401610445565b805462010000900460ff16156104f85760405162461bcd60e51b815260206004820152600f60248201526e105b1c9958591e4818db185a5b5959608a1b6044820152606401610445565b6007820154815460ff9182169116600281111561051757610517610e5b565b60ff16146105565760405162461bcd60e51b815260206004820152600c60248201526b2737ba1030903bb4b73732b960a11b6044820152606401610445565b805462ff00001916620100001781556007820154600090600484019060ff166003811061058557610585610eb7565b01549050600081846000015461059b9190610ecd565b604051909150600090339083908381818185875af1925050503d80600081146105e0576040519150601f19603f3d011682016040523d82523d6000602084013e6105e5565b606091505b50509050806106285760405162461bcd60e51b815260206004820152600f60248201526e151c985b9cd9995c8819985a5b1959608a1b6044820152606401610445565b604051828152869033907f987d620f307ff6b94d58743cb7a7509f24071586a77759b77c2d4e29f75a2f9a9060200160405180910390a3505050505050565b6000546001600160a01b031633146106915760405162461bcd60e51b815260040161044590610eef565b600155565b60028160ff1611156106db5760405162461bcd60e51b815260206004820152600e60248201526d24b73b30b634b21037b83a34b7b760911b6044820152606401610445565b60015434146107215760405162461bcd60e51b815260206004820152601260248201527115dc9bdb99c81cdd185ad948185b5bdd5b9d60721b6044820152606401610445565b6004546000908152600260205260409020600781015462010000900460ff1661077b5760405162461bcd60e51b815260206004820152600c60248201526b2230bc903737ba1037b832b760a11b6044820152606401610445565b6007810154610100900460ff16156107cc5760405162461bcd60e51b815260206004820152601460248201527311185e48185b1c9958591e481c995cdbdb1d995960621b6044820152606401610445565b6004546000908152600360209081526040808320338452909152902054610100900460ff16156108355760405162461bcd60e51b8152602060048201526014602482015273416c7265616479207374616b656420746f64617960601b6044820152606401610445565b60405180606001604052808360ff16600281111561085557610855610e5b565b600281111561086657610866610e5b565b81526001602080830182905260006040938401819052600454815260038252838120338252909152919091208251815491929091839160ff19909116908360028111156108b5576108b5610e5b565b0217905550602082015181546040909301511515620100000262ff000019911515610100029190911662ffff001990931692909217919091179055805434908290600090610904908490610f12565b909155503490506001820160ff84166003811061092357610923610eb7565b0160008282546109339190610f12565b90915550600190506004820160ff84166003811061095357610953610eb7565b0160008282546109639190610f12565b9091555050600454337fbde7f0ba1630d25515c7ab99ba47d5640b7ffb4c673b2a5464ae67919558929860ff851660028111156109a2576109a2610e5b565b346040516109b1929190610f39565b60405180910390a35050565b6000546001600160a01b031633146109e75760405162461bcd60e51b815260040161044590610eef565b600080546001600160a01b0319166001600160a01b0392909216919091179055565b60008281526003602090815260408083206001600160a01b0385168452909152812080548291829160ff6101008204811691166002811115610a4d57610a4d610e5b565b9154909791965062010000900460ff16945092505050565b6000546001600160a01b03163314610a8f5760405162461bcd60e51b815260040161044590610eef565b60028160ff161115610ad45760405162461bcd60e51b815260206004820152600e60248201526d24b73b30b634b2103bb4b73732b960911b6044820152606401610445565b6004546000908152600260205260409020600781015462010000900460ff16610b2e5760405162461bcd60e51b815260206004820152600c60248201526b2230bc903737ba1037b832b760a11b6044820152606401610445565b6007810154610100900460ff1615610b7b5760405162461bcd60e51b815260206004820152601060248201526f105b1c9958591e481c995cdbdb1d995960821b6044820152606401610445565b60078101805461ffff191660ff841690811761010017909155600090600483019060038110610bac57610bac610eb7565b015490506004547ff708d5cf24bfd97b8d216250c0dd5061e1e623770ceb1a8b812a51eb932402d28460ff166002811115610be957610be9610e5b565b8454604051610bfb9291908690610f54565b60405180910390a2600160046000828254610c169190610f12565b909155505060048054600090815260026020526040808220600701805462ff0000191662010000179055915491517f3be0a3a204f5de4fb6c50e9eafa1a22b8939161f238c3919b3ba45887af1cf1d9190a2505050565b6000546001600160a01b03163314610c975760405162461bcd60e51b815260040161044590610eef565b600080546040516001600160a01b039091169083908381818185875af1925050503d8060008114610ce4576040519150601f19603f3d011682016040523d82523d6000602084013e610ce9565b606091505b5050905080610d2c5760405162461bcd60e51b815260206004820152600f60248201526e151c985b9cd9995c8819985a5b1959608a1b6044820152606401610445565b5050565b60405180606001604052806003906020820280368337509192915050565b600060208284031215610d6057600080fd5b5035919050565b8060005b6003811015610d8a578151845260209384019390910190600101610d6b565b50505050565b8581526101208101610da56020830187610d67565b610db26080830186610d67565b83151560e083015260ff83166101008301529695505050505050565b600060208284031215610de057600080fd5b813560ff81168114610df157600080fd5b9392505050565b80356001600160a01b0381168114610e0f57600080fd5b919050565b600060208284031215610e2657600080fd5b610df182610df8565b60008060408385031215610e4257600080fd5b82359150610e5260208401610df8565b90509250929050565b634e487b7160e01b600052602160045260246000fd5b60038110610e8f57634e487b7160e01b600052602160045260246000fd5b9052565b60608101610ea18286610e71565b9215156020820152901515604090910152919050565b634e487b7160e01b600052603260045260246000fd5b600082610eea57634e487b7160e01b600052601260045260246000fd5b500490565b6020808252600990820152682737ba1030b236b4b760b91b604082015260600190565b80820180821115610f3357634e487b7160e01b600052601160045260246000fd5b92915050565b60408101610f478285610e71565b8260208301529392505050565b60608101610f628286610e71565b60208201939093526040015291905056fea264697066735822122038759496eed0bc8eed43b3a9a722b0d78b00f6e16e720b916dd7f860cd8e21ec64736f6c63430008180033",
  "linkReferences": {},
  "deployedLinkReferences": {}
}